:100000000C94BB010C94EC010C94EC010C94EC01ED
:100010000C94EC010C94EC010C94EC010C94EC01AC
:100020000C94EC010C94EC010C94EC010C94EC019C
:100030000C94EC010C94EC010C94EC010C94EC018C
:100040000C94EC010C94EC010C94EC010C94EC017C
:100050000C94EC010C94EC010C94EC010C94E5076D
:100060000C94EC010C9459080C942F080C94EC019E
:100070000C94EC010C94EC010C94EC010C94EC014C
:100080000C94EC010C94EC010C94EC010C94EC013C
:100090000C94EC010C94EC010C94EC010C94EC012C
:1000A0000C94EC010C94EC010C94EC010C94EC011C
:1000B0000C94EC010C94EC010C94EC010C94EC010C
:1000C0000C94EC010C94EC010C94EC010C94EC01FC
:1000D0000C94EC010C94EC010C94EC010C94EC01EC
:1000E0000C94EC010C9463040C941E020C94120208
:1000F0000C94C4030C948F080C94AB050C9425034A
:100100000C944C020C942B020C9431020C941A02A5
:100110000C945B030C9427020C9462040C943F0231
:100120000C940C020C944D020C9447020C9439026E
:100130000C9451020C946A030C9435020C94430203
:100140000C947E030C94110D0C9421020C94110458
:100150000C948C030C94160200407A10F35A00A001
:10016000724E18090010A5D4E80000E87648170080
:1001700000E40B54020000CA9A3B000000E1F505C0
:10018000000080969800000040420F000000A0860A
:1001900001000000102700000000E803000000003C
:1001A0006400000000000A000000000001000000E0
:1001B00000002C76D888DC674F0823DFC1DFAE59FA
:1001C000E1B1B796E5E3E453C63AE651997696E88D
:1001D000E6C28426EB898C9B62ED407C6FFCEFBC11
:1001E0009C9F40F2BAA56FA5F490055A2AF75C933C
:1001F0006B6CF9676DC11BFCE0E40D47FEF520E672
:10020000B500D0ED902E0300943577050080841E54
:10021000080000204E0A000000C80C333333330FAF
:10022000986E12831141EF8D2114893BE65516CF4C
:10023000FEE6DB18D1844B381BF77C1D901DA4BB58
:10024000E424203284725E228100C9F124ECA1E50D
:100250003D2700002100240027002A002D00300047
:10026000330001010000040107010A01000022001F
:10027000250028002B002E00310034000201000070
:10028000050108010B0100002000230026002900C1
:100290002C002F00320000010000030106010901BB
:1002A00005050505070508080808020202020A0AF2
:1002B0000808040404040101010101010101030310
:1002C000030303030303040707070C0C0C0C0C0CBB
:1002D0000C0C0202020206060606060606060B0BB8
:1002E0000B0B0B0B0B0B01021020200808102040F9
:1002F00010204080020102010804020101020408EA
:100300001020408080402010080402018004020177
:1003100080402010080402010804020101020408C0
:1003200010204080010204081020408000000A0BC9
:1003300002090C0D0E080703040100000000000074
:1003400000000000000000000000000000000000AD
:10035000000000000000000012111000000000006A
:10036000000000000000000000000000000000008D
:1003700000008F08110D11241FBECFEFD1E2DEBFA8
:10038000CDBF00E00CBF23E0A4E1B3E001C01D92AB
:10039000A73EB207E1F713E0A0E0B2E0EAE0F7E23F
:1003A00000E00BBF02C007900D92A431B107D9F74E
:1003B00011E0CAEBD1E000E006C021970109802FCF
:1003C000FE010E944111C93BD10780E00807A9F74F
:1003D0000E94DF080C9473130C940000815082314A
:1003E00008F05AC0E82FF0E08827E650FE4F8F4F04
:1003F0000C9441111A021E020C02120216024C0247
:10040000210227022B023102350239023F02430248
:100410004C0247024D025102809180008F778093F9
:1004200080000895809180008F7DF9CF80918000B9
:10043000877FF5CF84B58F7784BD089584B58F7D90
:10044000FBCF8091B0008F778093B00008958091AA
:10045000B0008F7DF9CF809190008F7780939000CE
:100460000895809190008F7DF9CF80919000877FD3
:10047000F5CF8091A0008F778093A00008958091A0
:10048000A0008F7DF9CF8091A000877FF5CF80916C
:1004900020018F77809320010895809120018F7D26
:1004A000F9CF80912001877FF5CFCF93DF93282F5D
:1004B00030E0F901E45DFC4F8491F901EA51FD4F10
:1004C000D491F901E056FD4FC491CC23A1F08111E4
:1004D0000E94EE01EC2FF0E0EE0FFF1FEA57FD4FF8
:1004E000A591B491EC91ED2381E090E009F480E0D6
:1004F000DF91CF91089580E090E0FACF1F93CF93E2
:10050000DF93282F30E0F901E45DFC4F8491F9017D
:10051000EA51FD4FD491F901E056FD4FC491CC232F
:10052000A9F0162F81110E94EE01EC2FF0E0EE0FE2
:10053000FF1FE459FD4FA591B4918FB7F894EC914A
:10054000111108C0D095DE23DC938FBFDF91CF91CE
:100550001F910895DE2BF8CFCF93DF9390E0FC013D
:10056000EA51FD4F249180569D4FFC0184918823D0
:10057000D1F090E0880F991FFC01EE5AFD4FA59134
:10058000B491FC01E459FD4FC591D491623071F4EE
:100590009FB7F8943C91822F809583238C93E881B8
:1005A0002E2B28839FBFDF91CF9108958FB7F894AA
:1005B000EC912E2B2C938FBFF6CF90917B00977FE1
:1005C00090937B008653806480937C0080917A00B6
:1005D000806480937A0080917A0086FDFCCF8091C0
:1005E00078009091790008953FB7F89480912403A2
:1005F00090912503A0912603B091270326B5A89BCF
:1006000005C02F3F19F00196A11DB11D3FBFBA2FA4
:10061000A92F982F8827BC01CD01620F711D811D64
:10062000911D42E0660F771F881F991F4A95D1F7E9
:1006300008952FB7F8946091200370912103809161
:100640002203909123032FBF0895AF92BF92CF92C0
:10065000DF92EF92FF920F931F93CF93DF936C0182
:100660007B018B01040F151FEB015E01AE18BF0863
:10067000C017D10759F06991D601ED91FC91019015
:10068000F081E02DC6011995892B79F7C501DF911D
:10069000CF911F910F91FF90EF90DF90CF90BF907F
:1006A000AF900895FC0144815581608171818BEC8C
:1006B00093E00C942503FC01538D448D252F30E0ED
:1006C000842F90E0821B930B541710F0CF9608955F
:1006D00001970895FC01918D828D981761F0A28D8C
:1006E000AE0FBF2FB11D5D968C91928D9F5F9F7352
:1006F000928F90E008958FEF9FEF0895FC01918D08
:10070000828D981731F0828DE80FF11D858D90E074
:1007100008958FEF9FEF0895FC01918D228D892F11
:1007200090E0805C9F4F821B91098F7399270895F9
:1007300088E293E00E948C0321E0892B09F420E0F9
:10074000822F0895FC01A48DA80FB92FB11DA35AC3
:10075000BF4F2C91848D90E001968F739927848FE1
:10076000A689B7892C93A089B1898C918370806404
:100770008C93938D848D981306C00288F389E02DA5
:1007800080818F7D80830895EF92FF920F931F9356
:10079000CF93DF93EC0181E0888F9B8D8C8D981334
:1007A0001AC0E889F989808185FF15C09FB7F89440
:1007B000EE89FF896083E889F9898081837080648C
:1007C00080839FBF81E090E0DF91CF911F910F91D7
:1007D000FF90EF900895F62E0B8D10E00F5F1F4FE6
:1007E0000F731127E02E8C8D8E110CC00FB607FCF5
:1007F000FACFE889F989808185FFF5CFCE010E9483
:10080000A203F1CFEB8DEC0FFD2FF11DE35AFF4F4B
:10081000F0829FB7F8940B8FEA89FB898081806210
:10082000CFCFCF93DF93EC01888D8823B9F0AA89CD
:10083000BB89E889F9898C9185FD03C0808186FD9B
:100840000DC00FB607FCF7CF8C9185FFF2CF8081EA
:1008500085FFEDCFCE010E94A203E9CFDF91CF91BA
:10086000089580E090E0892B29F00E94980381117F
:100870000E94000080E090E0892B49F080E090E049
:10088000892B29F00E94000081110E94000080E065
:1008900090E0892B49F080E090E0892B29F00E94BC
:1008A000000081110E94000080E090E0892B49F057
:1008B00080E090E0892B29F00E94000081110C94C7
:1008C00000000895089590E080E00895CF93DF93AD
:1008D000EC0160E08E810E947E0261E08E810E94C8
:1008E0007E0260E08E810E947E028BE891E001979B
:1008F000F1F7DF91CF910895CF92DF92EF92FF92BF
:100900000F931F93CF93DF936C017C0187E0E80E78
:10091000F11CD0E0C0E0062F10E0B8010C2E02C0A0
:10092000759567950A94E2F76170F70181917F01EF
:100930000E947E022196C430D10579F7C601DF916D
:10094000CF911F910F91FF90EF90DF90CF900C947B
:100950006604CF92DF92EF92FF920F931F93CF9393
:10096000DF93EC01F62E642F8C810E947E028D8134
:100970008F3F19F060E00E947E020F2D10E08F85FE
:1009800084FF25C06E0187E0C80ED11CF12CE12C3C
:10099000B8010E2C02C0759567950A94E2F7617054
:1009A000F60181916F010E947E02FFEFEF1AFF0AAC
:1009B00088E0E816F10461F7CE01DF91CF911F9135
:1009C0000F91FF90EF90DF90CF900C946604B801E8
:1009D00084E0759567958A95E1F7CE010E947C04C5
:1009E0006F2DCE01DF91CF911F910F91FF90EF906E
:1009F000DF90CF900C947C0440E0682F8BEC93E068
:100A00000C94A90481E00E94FC048BE39FE1019710
:100A1000F1F70895CF93DF93823029F49091DA03B0
:100A200098609093DA038093DE031092DF0380E4F2
:100A30008093E00380E18093E10380E58093E2030B
:100A400061E08091CF030E94AC028091D0038F3F80
:100A500019F061E00E94AC0261E08091D1030E9434
:100A6000AC02CBECD3E09E012B5C33408091DA03E7
:100A700084FD0BC084E090E021962817390744F4E8
:100A800061E08E810E94AC02EECF88E090E0F4CF6E
:100A90008BE39DE00197F1F760E08091CF030E9426
:100AA0007E0260E08091D1030E947E028091D0039B
:100AB0008F3F19F060E00E947E028091DA0384FD8E
:100AC00034C063E08BEC93E00E947C04CBE4D6E47A
:100AD000CE010197F1F763E08BEC93E00E947C0478
:100AE0002197F1F763E08BEC93E00E947C0483E5AF
:100AF00092E00197F1F762E08BEC93E00E947C04B6
:100B00008091DA0380620E94FC0484E08093DB031E
:100B10008CE00E94FC040E94020582E08093DC03CA
:100B200086E0DF91CF910C94FC0480620E94FC046B
:100B30008BE496E40197F1F78091DA0380620E94DA
:100B4000FC0483E592E00197F1F78091DA0380627B
:100B50000E94FC04D5CF41E00E94A90481E090E00E
:100B60000895FC0101900020E9F73197AF01481B7F
:100B7000590BBC0188E293E00C9425030F931F935B
:100B8000CF93DF93EC0188819981009759F02A81F6
:100B90003B812617370730F081E0DF91CF911F911D
:100BA0000F9108958B016F5F7F4F0E946E12009727
:100BB00059F0998388831B830A832C813D81232BE1
:100BC00059F7FC011082E8CF80E0E7CFEF92FF9267
:100BD0000F931F93CF93DF936115710541F480E06C
:100BE000DF91CF911F910F91FF90EF9008954115E4
:100BF0005105B1F07B01EC010C811D81040F151F23
:100C0000B8010E94BE05882351F3288139818C8167
:100C10009D81B701820F931F0E946C131D830C836B
:100C200081E0DECFCF93DF93EC018881998100973B
:100C300011F00E94E511198218821D821C821B820C
:100C40001A82DF91CF910895CF93DF93EC01FB01DE
:100C500044815581608171810E94E605811103C044
:100C6000CE010E941206CE01DF91CF910895EF923E
:100C7000FF920F931F93CF93DF93EC017B018A01C7
:100C8000BA010E94BE0581110BC0CE010E9412065E
:100C9000CE01DF91CF911F910F91FF90EF900895BA
:100CA0001D830C83B701888199810E946C13F0CF5A
:100CB000FB0101900020E9F73197AF01461B570B6C
:100CC0000C943706EF92FF920F931F93CF93DF930D
:100CD000CDB7DEB7A1970FB6F894DEBF0FBECDBF7C
:100CE0007C01CB01BA01F7011182108213821282BA
:100CF000158214828E010F5F1F4F21E043E00E9496
:100D0000150D009789F0BC01C7010E945806A196F5
:100D10000FB6F894DEBF0FBECDBFDF91CF911F910C
:100D20000F91FF90EF900895C7010E941206EFCF38
:100D3000CF93DF93EC01FB018617970749F06081A1
:100D400071816115710541F0448155810E9437061A
:100D5000CE01DF91CF9108950E941206F9CFFC01D8
:100D6000118210821382128215821482FB0101907B
:100D70000020E9F73197AF01461B570B0C9437065B
:100D8000AF92BF92CF92DF92EF92FF920F931F9399
:100D9000CF93DF936C015B017A018901241735073A
:100DA00020F48F2D7901042F182F60EB72E0C6011B
:100DB0000E94AF06D5011496CD91DC91EC16FD068C
:100DC000E0F40C171D0708F4E801D501ED91FC9142
:100DD0001197EC0FFD1F108110826D917C916E0DAB
:100DE0007F1DC60161157105A1F00E945806F5012D
:100DF00080819181C80FD91F1883C601DF91CF91DF
:100E00001F910F91FF90EF90DF90CF90BF90AF9028
:100E100008950E941206EBCFFC018081918100971A
:100E200011F00C94E5110895AF92BF92DF92EF920A
:100E3000FF920F931F93CF93DF9300D000D0CDB7D5
:100E4000DEB78C01DC011496ED90FC901597809133
:100E5000C9039091CA03E816F906C1F58D919C91DA
:100E60006091C5037091C6030097F9F06115710593
:100E700041F4E114F10409F498C0DC018C9190E094
:100E800022C00E9463131FC0E1E065C0E1E0D11001
:100E9000E0E0E195F0E0E553FC4F848980680E9432
:100EA000FC04C8010E94520371C06115710509F468
:100EB0007CC0E114F10409F478C0FB01808190E06A
:100EC000919581959109892B09F46FC0EF2809F458
:100ED0006CC0D801ED91FC918081882309F465C034
:100EE0000E940205F80184819581D090DE03892B50
:100EF00069F2A080B1806CE770E0C5010E945813D0
:100F0000009721F27C01EA18FB08FFEFEF16FF06BD
:100F100009F4BCCFE1E0D110E0E0E195F0E0E55369
:100F2000FC4F848980680E94FC04970150E040E0F7
:100F3000B801CE0101960E94C006CE0101960E9422
:100F40005203CE0101960E940C07E091DE03E230CD
:100F500008F09ACFE150F0E0E553FC4F84898068B7
:100F60000E94FC04D80114962D913C91A7014F5F7B
:100F70005F4FB801CE0101960E94C006CE010196D6
:100F80000E945203CE0101960E940C07B80185EC25
:100F900093E00E9498060E941903609314037093D3
:100FA0001503809316039093170326960FB6F894B3
:100FB000DEBF0FBECDBFDF91CF911F910F91FF908C
:100FC000EF90DF90BF90AF9008951F920F920FB6F1
:100FD0000F9211242F933F938F939F93AF93BF93BF
:100FE0008091200390912103A0912203B0912303CB
:100FF00030911F0323E0230F2D3758F50196A11DD3
:10100000B11D20931F038093200390932103A0938D
:101010002203B09323038091240390912503A09190
:101020002603B09127030196A11DB11D80932403CF
:1010300090932503A0932603B0932703BF91AF910C
:101040009F918F913F912F910F900FBE0F901F9006
:10105000189526E8230F0296A11DB11DD2CF1F922D
:101060000F920FB60F9211240BB60F922F933F934E
:101070004F935F936F937F938F939F93AF93BF93A0
:10108000EF93FF9388E293E00E94A203FF91EF9118
:10109000BF91AF919F918F917F916F915F914F9190
:1010A0003F912F910F900BBE0F900FBE0F901F908E
:1010B00018951F920F920FB60F9211240BB60F9234
:1010C0002F938F939F93EF93FF93E0913803F091C9
:1010D00039038081E0913E03F0913F0382FD1DC002
:1010E0009081809141038F5F8F732091420382171B
:1010F00041F0E0914103F0E0E85DFC4F958F809373
:101100004103FF91EF919F918F912F910F900BBE13
:101110000F900FBE0F901F9018958081F2CFE8E2DC
:10112000F3E01382128288EE93E0A0E0B0E08483C3
:101130009583A683B7838CE092E09183808385ECCE
:1011400090E09587848784EC90E09787868780EC91
:1011500090E0918B808B81EC90E0938B828B82EC82
:1011600090E0958B848B86EC90E0978B868B118E2C
:10117000128E138E148EEBECF3E0138212828EE14A
:1011800092E09183808387E084838FEF858388E07A
:10119000868389E087838AE080878BE081878CE083
:1011A00082871386148615861686178681E00E942C
:1011B0000A0560EB72E085EC93E00C94AF06CF93E8
:1011C000DF93CDB7DEB7AD970FB6F894DEBF0FBE95
:1011D000CDBF789484B5826084BD84B5816084BDC0
:1011E00085B5826085BD85B5816085BD80916E00C5
:1011F000816080936E0010928100809181008260F6
:101200008093810080918100816080938100809132
:1012100080008160809380008091B1008460809321
:10122000B1008091B00081608093B0008091910006
:101230008260809391008091910081608093910001
:10124000809190008160809390008091A1008260E5
:101250008093A1008091A10081608093A100809182
:10126000A00081608093A000809121018260809322
:1012700021018091210181608093210180912001D1
:1012800081608093200180917A00846080937A004D
:1012900080917A00826080937A0080917A008160E8
:1012A00080937A0080917A00806880937A0010920F
:1012B000C10062E082E00E94AC0262E083E00E9432
:1012C000AC0262E084E00E94AC0261E086E10E9430
:1012D000AC0261E087E10E94AC0261E088E10E941B
:1012E000AC0261E089E10E94AC0261E08AE10E9407
:1012F000AC0261E08BE10E94AC0261E085E00E94FB
:10130000AC0261E08CE10E94AC0261E08DE10E94E0
:10131000AC0261E086E00E94AC0261E08EE10E94D6
:10132000AC0261E08FE10E94AC0282E00E940A05FB
:101330000E940205E0913803F091390382E0808336
:10134000E0913403F09135031082E0913603F0917F
:1013500037038FEC808310924003E0913C03F091BF
:101360003D0386E08083E0913A03F0913B03808166
:1013700080618083E0913A03F0913B038081886033
:101380008083E0913A03F0913B0380818068808301
:10139000E0913A03F0913B0380818F7D8083332479
:1013A00033949AE0892E912CA12CB12C84E00E94D8
:1013B0005502019769F561E089E10E947E0261E0D2
:1013C0008AE10E947E0260E085E00E947E0260E089
:1013D00086E00E947E0210921E0310921D0360E0C0
:1013E00086E10E947E0260E08BE10E947E0266E25E
:1013F00072E0CE0101960E94AF06CE0101960E94D6
:101400001407CE0101960E940C070E943104CECF32
:1014100060E089E10E947E0260E08AE10E947E0233
:1014200082E00E9455027C018091000290910102AD
:10143000E816F90651F00E9419036093190370939E
:101440001A0380931B0390931C030E9419030091BD
:10145000190310911A0320911B0330911C03601B88
:10146000710B820B930B633371058105910508F4B1
:10147000E6C1E114F10409F0E2C110911E0311115B
:10148000BDC183E00E945502019709F09AC161E055
:1014900086E10E947E0261E08BE10E947E0267E4A9
:1014A00072E0CE0101960E94AF06CE0101960E9425
:1014B0001407CE0101960E940C0711E0F092010280
:1014C000E092000200911E03002331F183E00E94AC
:1014D0005502019709F561E085E00E94AC0260E0E9
:1014E00085E00E947E0210921E0361E086E10E9468
:1014F0007E0261E08BE10E947E0267E472E0CE0131
:1015000001960E94AF06CE0101960E941407CE01FB
:1015100001960E940C07102F86E30E94DD02BC0199
:10152000990F880B990B0E948B0F20E030E040EA66
:1015300050E40E94EA0F20E030EC4FE754E40E94B0
:10154000A81020E030E048EC52E40E94EA0F6B0162
:101550007C0120E030E048EC51E40E941A1118169A
:101560000CF06FC180911D0381114FC261E086E0D4
:101570000E94AC0261E086E00E947E0261E08EE1A2
:101580000E947E0260E08FE10E947E0230921D0385
:10159000B701A601CE0182960E94620665E872E05C
:1015A000CE0101960E94AF06BE016E5D7F4FCE0157
:1015B00001960E9424067C014EE050E060E972E052
:1015C000C7010E94E605811103C0C7010E941206EF
:1015D00019A618A61BA61AA61DA61CA6B701CE0101
:1015E00088960E949806CE0188960E941407CE0124
:1015F00088960E940C07CE0101960E940C07CE012E
:1016000082960E940C0711E087E30E94DD026C01C4
:1016100001E08A3F91050CF000E081EA92E00E942F
:10162000B10526010D2C000C6608770877FE3CC139
:101630006DE288E293E00E94C40322273327A901C8
:10164000241935094609570919A2CE0181967C0152
:10165000CA01B901A50194010E941F11605DF70143
:1016600062937F01211531054105510589F7E11488
:10167000F10419F0C7010E94B1058EEA92E00E94C0
:10168000B105809118030817D1F0FAEFCF16D104F5
:101690000CF020C161E087E10E947E0261EB72E004
:1016A000CE0101960E94AF06CE0101960E9414075A
:1016B000CE0101960E940C070093180311E088E305
:1016C0000E94DD02BC01990F880B990B0E948B0FC1
:1016D00020E030EC4FE754E40E94A81020E030E016
:1016E00048EC52E40E94EA0F6B017C0120E030E0FC
:1016F00040E251E40E94840F18160CF4F2C020E07E
:1017000030E040EA50E4C701B6010E941A111816F1
:101710000CF0E7C061E088E10E947E02B701A601FB
:10172000CE0182960E9462066CEC72E0CE010196B8
:101730000E94AF06BE016E5D7F4FCE0101960E94F2
:10174000240619A618A61BA61AA61DA61CA6BC012F
:10175000CE0188960E949806CE0188960E941407B2
:10176000CE0188960E940C07CE0101960E940C07BC
:10177000CE0182960E940C070E94F4022B013C01CC
:1017800082E3C82ED12CE12CF12C0E94F4026419C2
:10179000750986099709683E734081059105A8F38C
:1017A00081E0C81AD108E108F10898EE490E93E0EB
:1017B000591E611C711CC114D104E104F10429F704
:1017C00024CE60E086E10E947E0260E08BE10E9410
:1017D0007E0261E085E00E94AC0261E085E00E944B
:1017E0007E0261E08CE10E947E0260E08DE10E9459
:1017F0007E0230921E0364E672E053CE61E085E023
:101800000E94AC0260E085E00E947E0260E08CE114
:101810000E947E0260E08DE10E947E0210921E0313
:1018200064E772E0CE0101960E94AF06CE010196F8
:101830000E941407CE0101960E940C073FCE10E0D3
:101840003DCE20E030E048EC51E4C701B6010E94F3
:10185000840F18160CF4D8CE80911D03882309F448
:10186000D3CE61E086E00E94AC0260E086E00E9498
:101870007E0210921D03B701A601CE0182960E943E
:10188000620665E872E0CE0101960E94AF06BE01D5
:101890006E5D7F4FCE0101960E9424067C0141E0DF
:1018A00050E06FE972E08CCEA301920119A2CE0143
:1018B00081967C01CA01B901A50194010E941F1102
:1018C000605DF70162937F012115310541055105E6
:1018D00089F7CDCE60E087E10E947E026DEB72E079
:1018E000DFCE20E030E040EA50E4C701B6010E94BC
:1018F000840F1816FCF020E030E0A901C701B60102
:101900000E941A111816B4F40E94190324EF31E052
:1019100040E050E00E941F11622F617088E10E9438
:101920007E02B701A601CE0182960E94620663EE96
:1019300072E0FCCE20E030E0A901C701B6010E94B0
:10194000840F60E0181684F188E10E947E0261E055
:1019500085E00E94AC0260E085E00E947E0261E0CA
:1019600086E00E94AC0260E086E00E947E02109257
:101970001E0310921D0360E086E10E947E0260E07B
:1019800087E10E947E0260E08BE10E947E026CEFA4
:1019900072E0CE0101960E94AF06CE0101960E9430
:1019A0001407CE010196E6CE88E10E947E02111155
:1019B000E3CE0E94190300911403109115032091A6
:1019C000160330911703601B710B820B930B693B5D
:1019D0007B408105910508F4CFCE8091C903909199
:1019E000CA03892B09F4C8CEE091C503F091C60360
:1019F0008081882309F4C0CE0E94020560EB72E06A
:101A000085EC93E00E945806B7CE20E030E048EC29
:101A100051E4C701B6010E94840F18160CF4F4CDEE
:101A200020CF85EC93E00C940C07EF920F931F935B
:101A3000CF93DF93E80134E047FD34E1042E000C3E
:101A4000550B57FF03C0519541955109E32E022FC5
:101A5000242FAE010E94330DCE01DF91CF911F9153
:101A60000F91EF9008958F929F92AF92BF92CF9275
:101A7000DF92EF92FF920F931F93CF93DF9300D0EB
:101A800000D000D0CDB7DEB76A01F22EB02E102FF5
:101A9000FBE3AF2EA01608F41BE31F5F012F27E026
:101AA000AE014F5F5F4F0E94AC0EBC018981982F41
:101AB0009970913009F44EC09BE2E1FC04C09E2D68
:101AC0009170E0FC49C05E2D5071E82FE87083FFF3
:101AD00055C084E0911101C083E0EF2DE81B8F1504
:101AE00008F0E0E0D6018E2F20E25523C9F19923BA
:101AF00029F0D6019C93C60101966C0196012D5FD9
:101B00003F4FE2FE33C08EE4D6018C9391E41196F0
:101B10009C93119712968C93D9018E2F90E281118C
:101B20002AC0E20FF32FF11D10828EEF9FEF29964E
:101B30000FB6F894DEBF0FBECDBFDF91CF911F91DE
:101B40000F91FF90EF90DF90CF90BF90AF909F905C
:101B50008F9008959DE2B7CF90E2B5CF2D9381503D
:101B60008111FCCFCE0ED11CE0E0C1CF8EE6D601B4
:101B70008C9391E6CCCF9D938150D1CF482F447068
:101B800082FF3DC084E0911101C083E08F1510F405
:101B9000EF2DE81BD6018E2F20E2552309F1992362
:101BA00029F0D6019C93C60101966C0196012D5F28
:101BB0003F4FE2FE1BC089E4D6018C938EE4119660
:101BC0008C93119786E412968C93D9018E2F90E214
:101BD000882309F4A6CF9D938150FACF2D9381508D
:101BE0008111FCCFCE0ED11CE0E0D9CF89E6D60121
:101BF0008C938EE611968C93119786E6E4CF9B0129
:101C000077FF02C030E020E0A1E0B0E0911102C017
:101C1000B0E0A0E0F9013196AE0FBF1F8B2C912CE4
:101C2000BB2009F461C05401EFEFAE1ABE0AAA0D41
:101C3000BB1DFA161B0619F014F04F2D4A1B51114B
:101C400088C0E3FC59C07601A42FB0E2A1114FC0B7
:101C5000C40ED11C992309F45BC040E0D601119653
:101C6000F60190836D01552309F448C0012F060F3A
:101C70009A81582F507184FF03C0913309F40150A9
:101C800010160CF047C0093008F008E0EEE2FE2E16
:101C90005B01A01AB10885019194819491082F3FAE
:101CA000320729F4D601FC92F60131966F016217D2
:101CB000730794F1021713077CF5DB01A21BB30B2A
:101CC000AA24A394B12CAC0EBD1EAA0DBB1D119667
:101CD0008C9121503109D601119628153905F4F05F
:101CE000F60180836D01DBCFB12CA12CA0CFF701D1
:101CF000B1937F01A150AACF9111B0CFD601942FFB
:101D000050E302C05D9391509111FCCFC40ED11CE1
:101D100040E0ACCF01E0BACF80E3DBCF62177307BE
:101D200031F4963388F4953311F4552369F0F601B4
:101D30008083FD01842F90E2811108C0A40FB11DA2
:101D40001C9290E080E0F3CE81E3F1CF919381503B
:101D5000F3CF911183CF8ACF283008F027E03327C3
:101D6000DA01990F311D87FD9160009661057105BB
:101D700039F432602E5F3D9330E32A95E1F7089500
:101D80009F3F30F080387105610509F03C5F3C5F92
:101D90003D93913008F08068911DDF93CF931F939E
:101DA0000F93FF92EF92192F987F9695E92F9695B2
:101DB0009695E90FFF27EE54FE4F99273327EE241F
:101DC000FF24A701E70105900894079428F4360F33
:101DD000E71EF81E491F511D660F771F881F991FA8
:101DE0000694A1F70590079428F4E70EF81E491F02
:101DF000561FC11D770F881F991F661F0694A1F7F4
:101E00000590079428F4F80E491F561FC71FD11DCF
:101E1000880F991F661F771F0694A1F705900794F6
:101E200020F4490F561FC71FD81F990F661F771F31
:101E3000881F0694A9F784911095177041F0D695E4
:101E4000C79557954795F794E7941A95C1F7E8E534
:101E5000F1E06894159015913591659195910590F3
:101E60007FE27395E118F10A430B560BC90BD009B9
:101E7000C0F7E10CF11E431F561FC91FD01D7EF491
:101E8000703311F48A95E6CFE894015030F0080FD2
:101E90000AF40027021708F4202F2395022F7A3323
:101EA00028F079E37D932A95E9F710C07D932A9570
:101EB00089F6069497956795379517951794E118C5
:101EC000F10A430B560BC90BD00998F023957E916C
:101ED00073957A3308F070E37C932013B8F77E9102
:101EE00070617D9330F0839571E37D9370E32A9563
:101EF000E1F71124EF90FF900F911F91CF91DF91A7
:101F0000992787FD909508950E94C60F08F481E0F7
:101F10000895E89409C097FB3EF4909580957095DC
:101F200061957F4F8F4F9F4F9923A9F0F92F96E925
:101F3000BB279395F695879577956795B795F1119A
:101F4000F8CFFAF4BB0F11F460FF1BC06F5F7F4F37
:101F50008F4F9F4F16C0882311F096E911C0772349
:101F600021F09EE8872F762F05C0662371F096E852
:101F7000862F70E060E02AF09A95660F771F881F21
:101F8000DAF7880F9695879597F90895990F0008C5
:101F9000550FAA0BE0E8FEEF16161706E807F9073B
:101FA000C0F012161306E407F50798F0621B730BD6
:101FB000840B950B39F40A2661F0232B242B252B57
:101FC00021F408950A2609F4A140A6958FEF811DFA
:101FD000811D08950E94FD0F0C946E100E946010E8
:101FE00038F00E94671020F0952311F00C945710E0
:101FF0000C945D1011240C94A2100E947F1070F3B9
:10200000959FC1F3950F50E0551F629FF001729F9D
:10201000BB27F00DB11D639FAA27F00DB11DAA1FAC
:10202000649F6627B00DA11D661F829F2227B00DF9
:10203000A11D621F739FB00DA11D621F839FA00D84
:10204000611D221F749F3327A00D611D231F849FD4
:10205000600D211D822F762F6A2F11249F5750402B
:102060009AF0F1F088234AF0EE0FFF1FBB1F661FA6
:10207000771F881F91505040A9F79E3F510580F06F
:102080000C9457100C94A2105F3FE4F3983ED4F3E5
:10209000869577956795B795F795E7959F5FC1F713
:1020A000FE2B880F911D9695879597F9089597F9BE
:1020B0009F6780E870E060E008959FEF80EC0895EE
:1020C00000240A9416161706180609060895002417
:1020D0000A9412161306140605060895092E039491
:1020E000000C11F4882352F0BB0F40F4BF2B11F405
:1020F00060FF04C06F5F7F4F8F4F9F4F089557FD64
:102100009058440F551F59F05F3F71F04795880F65
:1021100097FB991F61F09F3F79F0879508951216FC
:1021200013061406551FF2CF4695F1DF08C01616A8
:1021300017061806991FF1CF869571056105089459
:102140000895E894BB2766277727CB0197F9089570
:102150000E94BC100C946E100E94671058F00E94F0
:10216000601040F029F45F3F29F00C945710511192
:102170000C94A2100C945D100E947F1068F39923B8
:10218000B1F3552391F3951B550BBB27AA27621773
:102190007307840738F09F5F5F4F220F331F441F80
:1021A000AA1FA9F335D00E2E3AF0E0E832D09150B4
:1021B0005040E695001CCAF72BD0FE2F29D0660FA1
:1021C000771F881FBB1F261737074807AB07B0E8E4
:1021D00009F0BB0B802DBF01FF2793585F4F3AF0EA
:1021E0009E3F510578F00C9457100C94A2105F3F5D
:1021F000E4F3983ED4F3869577956795B795F79570
:102200009F5FC9F7880F911D9695879597F9089557
:10221000E1E0660F771F881FBB1F621773078407F3
:10222000BA0720F0621B730B840BBA0BEE1F88F702
:10223000E09508950E94C60F08F48FEF0895A1E27B
:102240001A2EAA1BBB1BFD010DC0AA1FBB1FEE1F30
:10225000FF1FA217B307E407F50720F0A21BB30B7B
:10226000E40BF50B661F771F881F991F1A9469F7F7
:1022700060957095809590959B01AC01BD01CF0153
:102280000895EE0FFF1F881F8BBF0790F691E02D7A
:1022900019940F931F93CF93DF938230910510F41D
:1022A00082E090E0E091E503F091E60330E020E089
:1022B000B0E0A0E0309799F42115310509F44AC047
:1022C000281B390B24303105D8F58A819B81611593
:1022D000710589F1FB0193838283FE0111C0408166
:1022E00051810281138148175907E0F048175907B7
:1022F00099F4109761F012960C93129713961C9311
:102300003296CF01DF91CF911F910F9108950093E5
:10231000E5031093E603F4CF2115310551F0421780
:10232000530738F0A901DB019A01BD01DF01F80173
:10233000C1CFEF01F9CF9093E6038093E503CDCFB2
:10234000FE01E20FF31F81939193225031093983EB
:102350002883D7CF2091E3033091E403232B41F46A
:1023600020910402309105023093E4032093E303AB
:1023700020910202309103022115310541F42DB75D
:102380003EB74091060250910702241B350BE091A5
:10239000E303F091E403E217F307A0F42E1B3F0BD5
:1023A0002817390778F0AC014E5F5F4F24173507C7
:1023B00048F04E0F5F1F5093E4034093E303819373
:1023C00091939FCFF0E0E0E09CCFCF93DF93009715
:1023D000E9F0FC01329713821282A091E503B091DB
:1023E000E603ED0130E020E01097A1F42081318177
:1023F000820F931F2091E3033091E40328173907DC
:1024000009F061C0F093E403E093E303DF91CF911F
:102410000895EA01CE17DF07E8F54A815B819E0146
:1024200041155105B1F7E901FB83EA8349915991BF
:10243000C40FD51FEC17FD0761F4808191810296CE
:10244000840F951FE90199838883828193819B83FF
:102450008A83F0E0E0E012968D919C9113970097AB
:10246000B9F52D913C911197CD010296820F931FE2
:102470002091E3033091E4032817390739F63097A8
:1024800051F51092E6031092E503B093E403A09394
:10249000E303BCCFD383C28340815181840F951F56
:1024A000C817D90761F44E5F5F4F88819981480F43
:1024B000591F518340838A819B8193838283211595
:1024C000310509F0B0CFF093E603E093E5039ECF2A
:1024D000FD01DC01C0CF13821282D7CF4F925F92F1
:1024E0006F927F928F929F92AF92BF92CF92DF9224
:1024F000EF92FF920F931F93CF93DF938C0100977E
:1025000099F4CB01DF91CF911F910F91FF90EF9044
:10251000DF90CF90BF90AF909F908F907F906F9003
:102520005F904F900C944911FC01E60FF71F9C013E
:1025300022503109E217F30708F4AEC0D901CD915A
:10254000DC911197C617D70720F1C530D10578F077
:10255000CE0104978617970750F0C61BD70B22971A
:10256000C193D1936D937C93CF010E94E511C80173
:10257000DF91CF911F910F91FF90EF90DF90CF905F
:10258000BF90AF909F908F907F906F905F904F9093
:1025900008955B01AC1ABD0A4C018C0E9D1EA091E2
:1025A000E503B091E603512C412CF12CE12C10975E
:1025B00031F58091E3039091E4038815990509F0C2
:1025C0005CC04616570608F058C0809102029091F0
:1025D0000302009741F48DB79EB7409106025091D7
:1025E0000702841B950BE817F90708F055C0F09314
:1025F000E403E093E303F90171836083B8CF8D9125
:102600009C91119712966C90129713967C90139749
:10261000A815B90559F56C0142E0C40ED11CCA14C5
:10262000DB0420F1AC014A195B09DA011296159717
:1026300080F06282738251834083D9016D937C93D1
:10264000E114F10471F0D7011396FC93EE93129705
:102650008ECF22968C0F9D1FF90191838083F30109
:10266000EFCFF093E603E093E50381CF48165906D8
:1026700008F42C017D01D3019ACFCB010E944911AE
:102680007C01009749F0AE01B8010E944F13C801C8
:102690000E94E51187016BCF10E000E068CFFB01DD
:1026A000DC0102C001900D9241505040D8F70895CE
:1026B000FC018191861721F08823D9F79927089585
:1026C0003197CF010895FB01DC018D9101908019B4
:1026D0000110D9F3990B0895FB01DC0101900D92D3
:1026E0000020E1F7089511E0CAEBD1E000E006C058
:1026F000802FFE010E9441112196011DCB3BD10785
:0A27000080E00807A9F7F894FFCF66
:10270A0001000000E703800000000000C403250365
:10271A005B0311048C036A037E0300000000AB050F
:10272A0025036304620455796172693A204B61702A
:10273A0069204163696B7C4D6F746F722043616CD1
:10274A0069736D617A2100456D6E69796574204BF4
:10275A00656D6572697C54616B696C692044656753
:10276A00696C21004D6F746F722043616C697369E3
:10277A00796F72004D6F746F72204475726475724E
:10278A00756C647500536963616B6C696B3A200000
:10279A00437C4B6C696D61204163696C64690043D9
:1027AA00004C4452204465676572693A20000D0A5C
:1027BA00004661726C6172204163696B0046617206
:1027CA006C6172204B6170616E6469005579617247
:1027DA00693A2059616B69747C447573756B202D55
:1027EA002025004B726974696B3A2059616B6974D0
:1027FA007C436F6B20417A202D20250059616B693B
:10280A00742042697474697C4D6F746F72204475C8
:04281A00726475006F
:00000001FF
