:020000040000FA
:100000000C94BB010C94EC010C94EC010C94EC01ED
:100010000C94EC010C94EC010C94EC010C94EC01AC
:100020000C94EC010C94EC010C94EC010C94EC019C
:100030000C94EC010C94EC010C94EC010C94EC018C
:100040000C94EC010C94EC010C94EC010C94EC017C
:100050000C94EC010C94EC010C94EC010C94E5076D
:100060000C94EC010C9459080C942F080C94EC019E
:100070000C94EC010C94EC010C94EC010C94EC014C
:100080000C94EC010C94EC010C94EC010C94EC013C
:100090000C94EC010C94EC010C94EC010C94EC012C
:1000A0000C94EC010C94EC010C94EC010C94EC011C
:1000B0000C94EC010C94EC010C94EC010C94EC010C
:1000C0000C94EC010C94EC010C94EC010C94EC01FC
:1000D0000C94EC010C94EC010C94EC010C94EC01EC
:1000E0000C94EC010C9463040C941E020C94120208
:1000F0000C94C4030C948F080C94AB050C9425034A
:100100000C944C020C942B020C9431020C941A02A5
:100110000C945B030C9427020C9462040C943F0231
:100120000C940C020C944D020C9447020C9439026E
:100130000C9451020C946A030C9435020C94430203
:100140000C947E030C94110D0C9421020C94110458
:100150000C948C030C94160200407A10F35A00A001
:10016000724E18090010A5D4E80000E87648170080
:1001700000E40B54020000CA9A3B000000E1F505C0
:10018000000080969800000040420F000000A0860A
:1001900001000000102700000000E803000000003C
:1001A0006400000000000A000000000001000000E0
:1001B00000002C76D888DC674F0823DFC1DFAE59FA
:1001C000E1B1B796E5E3E453C63AE651997696E88D
:1001D000E6C28426EB898C9B62ED407C6FFCEFBC11
:1001E0009C9F40F2BAA56FA5F490055A2AF75C933C
:1001F0006B6CF9676DC11BFCE0E40D47FEF520E672
:10020000B500D0ED902E0300943577050080841E54
:10021000080000204E0A000000C80C333333330FAF
:10022000986E12831141EF8D2114893BE65516CF4C
:10023000FEE6DB18D1844B381BF77C1D901DA4BB58
:10024000E424203284725E228100C9F124ECA1E50D
:100250003D2700002100240027002A002D00300047
:10026000330001010000040107010A01000022001F
:10027000250028002B002E00310034000201000070
:10028000050108010B0100002000230026002900C1
:100290002C002F00320000010000030106010901BB
:1002A00005050505070508080808020202020A0AF2
:1002B0000808040404040101010101010101030310
:1002C000030303030303040707070C0C0C0C0C0CBB
:1002D0000C0C0202020206060606060606060B0BB8
:1002E0000B0B0B0B0B0B01021020200808102040F9
:1002F00010204080020102010804020101020408EA
:100300001020408080402010080402018004020177
:1003100080402010080402010804020101020408C0
:1003200010204080010204081020408000000A0BC9
:1003300002090C0D0E080703040100000000000074
:1003400000000000000000000000000000000000AD
:10035000000000000000000012111000000000006A
:10036000000000000000000000000000000000008D
:1003700000008F08110D11241FBECFEFD1E2DEBFA8
:10038000CDBF00E00CBF23E0A4E1B3E001C01D92AB
:10039000A73EB207E1F713E0A0E0B2E0EAE0F7E23F
:1003A00000E00BBF02C007900D92A431B107D9F74E
:1003B00011E0CAEBD1E000E006C021970109802FCF
:1003C000FE010E944111C93BD10780E00807A9F74F
:1003D0000E94DF080C9473130C940000815082314A
:1003E00008F05AC0E82FF0E08827E650FE4F8F4F04
:1003F0000C9441111A021E020C02120216024C0247
:10040000210227022B023102350239023F02430248
:100410004C0247024D025102809180008F778093F9
:1004200080000895809180008F7DF9CF80918000B9
:10043000877FF5CF84B58F7784BD089584B58F7D90
:10044000FBCF8091B0008F778093B00008958091AA
:10045000B0008F7DF9CF809190008F7780939000CE
:100460000895809190008F7DF9CF80919000877FD3
:10047000F5CF8091A0008F778093A00008958091A0
:10048000A0008F7DF9CF8091A000877FF5CF80916C
:1004900020018F77809320010895809120018F7D26
:1004A000F9CF80912001877FF5CFCF93DF93282F5D
:1004B00030E0F901E45DFC4F8491F901EA51FD4F10
:1004C000D491F901E056FD4FC491CC23A1F08111E4
:1004D0000E94EE01EC2FF0E0EE0FFF1FEA57FD4FF8
:1004E000A591B491EC91ED2381E090E009F480E0D6
:1004F000DF91CF91089580E090E0FACF1F93CF93E2
:10050000DF93282F30E0F901E45DFC4F8491F9017D
:10051000EA51FD4FD491F901E056FD4FC491CC232F
:10052000A9F0162F81110E94EE01EC2FF0E0EE0FE2
:10053000FF1FE459FD4FA591B4918FB7F894EC914A
:10054000111108C0D095DE23DC938FBFDF91CF91CE
:100550001F910895DE2BF8CFCF93DF9390E0FC013D
:10056000EA51FD4F249180569D4FFC0184918823D0
:10057000D1F090E0880F991FFC01EE5AFD4FA59134
:10058000B491FC01E459FD4FC591D491623071F4EE
:100590009FB7F8943C91822F809583238C93E881B8
:1005A0002E2B28839FBFDF91CF9108958FB7F894AA
:1005B000EC912E2B2C938FBFF6CF90917B00977FE1
:1005C00090937B008653806480937C0080917A00B6
:1005D000806480937A0080917A0086FDFCCF8091C0
:1005E00078009091790008953FB7F89480912403A2
:1005F00090912503A0912603B091270326B5A89BCF
:1006000005C02F3F19F00196A11DB11D3FBFBA2FA4
:10061000A92F982F8827BC01CD01620F711D811D64
:10062000911D42E0660F771F881F991F4A95D1F7E9
:1006300008952FB7F8946091200370912103809161
:100640002203909123032FBF0895AF92BF92CF92C0
:10065000DF92EF92FF920F931F93CF93DF936C0182
:100660007B018B01040F151FEB015E01AE18BF0863
:10067000C017D10759F06991D601ED91FC91019015
:10068000F081E02DC6011995892B79F7C501DF911D
:10069000CF911F910F91FF90EF90DF90CF90BF907F
:1006A000AF900895FC0144815581608171818BEC8C
:1006B00093E00C942503FC01538D448D252F30E0ED
:1006C000842F90E0821B930B541710F0CF9608955F
:1006D00001970895FC01918D828D981761F0A28D8C
:1006E000AE0FBF2FB11D5D968C91928D9F5F9F7352
:1006F000928F90E008958FEF9FEF0895FC01918D08
:10070000828D981731F0828DE80FF11D858D90E074
:1007100008958FEF9FEF0895FC01918D228D892F11
:1007200090E0805C9F4F821B91098F7399270895F9
:1007300088E293E00E948C0321E0892B09F420E0F9
:10074000822F0895FC01A48DA80FB92FB11DA35AC3
:10075000BF4F2C91848D90E001968F739927848FE1
:10076000A689B7892C93A089B1898C918370806404
:100770008C93938D848D981306C00288F389E02DA5
:1007800080818F7D80830895EF92FF920F931F9356
:10079000CF93DF93EC0181E0888F9B8D8C8D981334
:1007A0001AC0E889F989808185FF15C09FB7F89440
:1007B000EE89FF896083E889F9898081837080648C
:1007C00080839FBF81E090E0DF91CF911F910F91D7
:1007D000FF90EF900895F62E0B8D10E00F5F1F4FE6
:1007E0000F731127E02E8C8D8E110CC00FB607FCF5
:1007F000FACFE889F989808185FFF5CFCE010E9483
:10080000A203F1CFEB8DEC0FFD2FF11DE35AFF4F4B
:10081000F0829FB7F8940B8FEA89FB898081806210
:10082000CFCFCF93DF93EC01888D8823B9F0AA89CD
:10083000BB89E889F9898C9185FD03C0808186FD9B
:100840000DC00FB607FCF7CF8C9185FFF2CF8081EA
:1008500085FFEDCFCE010E94A203E9CFDF91CF91BA
:10086000089580E090E0892B29F00E94980381117F
:100870000E94000080E090E0892B49F080E090E049
:10088000892B29F00E94000081110E94000080E065
:1008900090E0892B49F080E090E0892B29F00E94BC
:1008A000000081110E94000080E090E0892B49F057
:1008B00080E090E0892B29F00E94000081110C94C7
:1008C00000000895089590E080E00895CF93DF93AD
:1008D000EC0160E08E810E947E0261E08E810E94C8
:1008E0007E0260E08E810E947E028BE891E001979B
:1008F000F1F7DF91CF910895CF92DF92EF92FF92BF
:100900000F931F93CF93DF936C017C0187E0E80E78
:10091000F11CD0E0C0E0062F10E0B8010C2E02C0A0
:10092000759567950A94E2F76170F70181917F01EF
:100930000E947E022196C430D10579F7C601DF916D
:10094000CF911F910F91FF90EF90DF90CF900C947B
:100950006604CF92DF92EF92FF920F931F93CF9393
:10096000DF93EC01F62E642F8C810E947E028D8134
:100970008F3F19F060E00E947E020F2D10E08F85FE
:1009800084FF25C06E0187E0C80ED11CF12CE12C3C
:10099000B8010E2C02C0759567950A94E2F7617054
:1009A000F60181916F010E947E02FFEFEF1AFF0AAC
:1009B00088E0E816F10461F7CE01DF91CF911F9135
:1009C0000F91FF90EF90DF90CF900C946604B801E8
:1009D00084E0759567958A95E1F7CE010E947C04C5
:1009E0006F2DCE01DF91CF911F910F91FF90EF906E
:1009F000DF90CF900C947C0440E0682F8BEC93E068
:100A00000C94A90481E00E94FC048BE39FE1019710
:100A1000F1F70895CF93DF93823029F49091DA03B0
:100A200098609093DA038093DE031092DF0380E4F2
:100A30008093E00380E18093E10380E58093E2030B
:100A400061E08091CF030E94AC028091D0038F3F80
:100A500019F061E00E94AC0261E08091D1030E9434
:100A6000AC02CBECD3E09E012B5C33408091DA03E7
:100A700084FD0BC084E090E021962817390744F4E8
:100A800061E08E810E94AC02EECF88E090E0F4CF6E
:100A90008BE39DE00197F1F760E08091CF030E9426
:100AA0007E0260E08091D1030E947E028091D0039B
:100AB0008F3F19F060E00E947E028091DA0384FD8E
:100AC00034C063E08BEC93E00E947C04CBE4D6E47A
:100AD000CE010197F1F763E08BEC93E00E947C0478
:100AE0002197F1F763E08BEC93E00E947C0483E5AF
:100AF00092E00197F1F762E08BEC93E00E947C04B6
:100B00008091DA0380620E94FC0484E08093DB031E
:100B10008CE00E94FC040E94020582E08093DC03CA
:100B200086E0DF91CF910C94FC0480620E94FC046B
:100B30008BE496E40197F1F78091DA0380620E94DA
:100B4000FC0483E592E00197F1F78091DA0380627B
:100B50000E94FC04D5CF41E00E94A90481E090E00E
:100B60000895FC0101900020E9F73197AF01481B7F
:100B7000590BBC0188E293E00C9425030F931F935B
:100B8000CF93DF93EC0188819981009759F02A81F6
:100B90003B812617370730F081E0DF91CF911F911D
:100BA0000F9108958B016F5F7F4F0E946E12009727
:100BB00059F0998388831B830A832C813D81232BE1
:100BC00059F7FC011082E8CF80E0E7CFEF92FF9267
:100BD0000F931F93CF93DF936115710541F480E06C
:100BE000DF91CF911F910F91FF90EF9008954115E4
:100BF0005105B1F07B01EC010C811D81040F151F23
:100C0000B8010E94BE05882351F3288139818C8167
:100C10009D81B701820F931F0E946C131D830C836B
:100C200081E0DECFCF93DF93EC018881998100973B
:100C300011F00E94E511198218821D821C821B820C
:100C40001A82DF91CF910895CF93DF93EC01FB01DE
:100C500044815581608171810E94E605811103C044
:100C6000CE010E941206CE01DF91CF910895EF923E
:100C7000FF920F931F93CF93DF93EC017B018A01C7
:100C8000BA010E94BE0581110BC0CE010E9412065E
:100C9000CE01DF91CF911F910F91FF90EF900895BA
:100CA0001D830C83B701888199810E946C13F0CF5A
:100CB000FB0101900020E9F73197AF01461B570B6C
:100CC0000C943706EF92FF920F931F93CF93DF930D
:100CD000CDB7DEB7A1970FB6F894DEBF0FBECDBF7C
:100CE0007C01CB01BA01F7011182108213821282BA
:100CF000158214828E010F5F1F4F21E043E00E9496
:100D0000150D009789F0BC01C7010E945806A196F5
:100D10000FB6F894DEBF0FBECDBFDF91CF911F910C
:100D20000F91FF90EF900895C7010E941206EFCF38
:100D3000CF93DF93EC01FB018617970749F06081A1
:100D400071816115710541F0448155810E9437061A
:100D5000CE01DF91CF9108950E941206F9CFFC01D8
:100D6000118210821382128215821482FB0101907B
:100D70000020E9F73197AF01461B570B0C9437065B
:100D8000AF92BF92CF92DF92EF92FF920F931F9399
:100D9000CF93DF936C015B017A018901241735073A
:100DA00020F48F2D7901042F182F60EB72E0C6011B
:100DB0000E94AF06D5011496CD91DC91EC16FD068C
:100DC000E0F40C171D0708F4E801D501ED91FC9142
:100DD0001197EC0FFD1F108110826D917C916E0DAB
:100DE0007F1DC60161157105A1F00E945806F5012D
:100DF00080819181C80FD91F1883C601DF91CF91DF
:100E00001F910F91FF90EF90DF90CF90BF90AF9028
:100E100008950E941206EBCFFC018081918100971A
:100E200011F00C94E5110895AF92BF92DF92EF920A
:100E3000FF920F931F93CF93DF9300D000D0CDB7D5
:100E4000DEB78C01DC011496ED90FC901597809133
:100E5000C9039091CA03E816F906C1F58D919C91DA
:100E60006091C5037091C6030097F9F06115710593
:100E700041F4E114F10409F498C0DC018C9190E094
:100E800022C00E9463131FC0E1E065C0E1E0D11001
:100E9000E0E0E195F0E0E553FC4F848980680E9432
:100EA000FC04C8010E94520371C06115710509F468
:100EB0007CC0E114F10409F478C0FB01808190E06A
:100EC000919581959109892B09F46FC0EF2809F458
:100ED0006CC0D801ED91FC918081882309F465C034
:100EE0000E940205F80184819581D090DE03892B50
:100EF00069F2A080B1806CE770E0C5010E945813D0
:100F0000009721F27C01EA18FB08FFEFEF16FF06BD
:100F100009F4BCCFE1E0D110E0E0E195F0E0E55369
:100F2000FC4F848980680E94FC04970150E040E0F7
:100F3000B801CE0101960E94C006CE0101960E9422
:100F40005203CE0101960E940C07E091DE03E230CD
:100F500008F09ACFE150F0E0E553FC4F84898068B7
:100F60000E94FC04D80114962D913C91A7014F5F7B
:100F70005F4FB801CE0101960E94C006CE010196D6
:100F80000E945203CE0101960E940C07B80185EC25
:100F900093E00E9498060E941903609314037093D3
:100FA0001503809316039093170326960FB6F894B3
:100FB000DEBF0FBECDBFDF91CF911F910F91FF908C
:100FC000EF90DF90BF90AF9008951F920F920FB6F1
:100FD0000F9211242F933F938F939F93AF93BF93BF
:100FE0008091200390912103A0912203B0912303CB
:100FF00030911F0323E0230F2D3758F50196A11DD3
:10100000B11D20931F038093200390932103A0938D
:101010002203B09323038091240390912503A09190
:101020002603B09127030196A11DB11D80932403CF
:1010300090932503A0932603B0932703BF91AF910C
:101040009F918F913F912F910F900FBE0F901F9006
:10105000189526E8230F0296A11DB11DD2CF1F922D
:101060000F920FB60F9211240BB60F922F933F934E
:101070004F935F936F937F938F939F93AF93BF93A0
:10108000EF93FF9388E293E00E94A203FF91EF9118
:10109000BF91AF919F918F917F916F915F914F9190
:1010A0003F912F910F900BBE0F900FBE0F901F908E
:1010B00018951F920F920FB60F9211240BB60F9234
:1010C0002F938F939F93EF93FF93E0913803F091C9
:1010D00039038081E0913E03F0913F0382FD1DC002
:1010E0009081809141038F5F8F732091420382171B
:1010F00041F0E0914103F0E0E85DFC4F958F809373
:101100004103FF91EF919F918F912F910F900BBE13
:101110000F900FBE0F901F9018958081F2CFE8E2DC
:10112000F3E01382128288EE93E0A0E0B0E08483C3
:101130009583A683B7838CE092E09183808385ECCE
:1011400090E09587848784EC90E09787868780EC91
:1011500090E0918B808B81EC90E0938B828B82EC82
:1011600090E0958B848B86EC90E0978B868B118E2C
:10117000128E138E148EEBECF3E0138212828EE14A
:1011800092E09183808387E084838FEF858388E07A
:10119000868389E087838AE080878BE081878CE083
:1011A00082871386148615861686178681E00E942C
:1011B0000A0560EB72E085EC93E00C94AF06CF93E8
:1011C000DF93CDB7DEB7AD970FB6F894DEBF0FBE95
:1011D000CDBF789484B5826084BD84B5816084BDC0
:1011E00085B5826085BD85B5816085BD80916E00C5
:1011F000816080936E0010928100809181008260F6
:101200008093810080918100816080938100809132
:1012100080008160809380008091B1008460809321
:10122000B1008091B00081608093B0008091910006
:101230008260809391008091910081608093910001
:10124000809190008160809390008091A1008260E5
:101250008093A1008091A10081608093A100809182
:10126000A00081608093A000809121018260809322
:1012700021018091210181608093210180912001D1
:1012800081608093200180917A00846080937A004D
:1012900080917A00826080937A0080917A008160E8
:1012A00080937A0080917A00806880937A0010920F
:1012B000C10062E082E00E94AC0262E083E00E9432
:1012C000AC0262E084E00E94AC0261E086E10E9430
:1012D000AC0261E087E10E94AC0261E088E10E941B
:1012E000AC0261E089E10E94AC0261E08AE10E9407
:1012F000AC0261E08BE10E94AC0261E085E00E94FB
:10130000AC0261E08CE10E94AC0261E08DE10E94E0
:10131000AC0261E086E00E94AC0261E08EE10E94D6
:10132000AC0261E08FE10E94AC0282E00E940A05FB
:101330000E940205E0913803F091390382E0808336
:10134000E0913403F09135031082E0913603F0917F
:1013500037038FEC808310924003E0913C03F091BF
:101360003D0386E08083E0913A03F0913B03808166
:1013700080618083E0913A03F0913B038081886033
:101380008083E0913A03F0913B0380818068808301
:10139000E0913A03F0913B0380818F7D8083332479
:1013A00033949AE0892E912CA12CB12C84E00E94D8
:1013B0005502019769F561E089E10E947E0261E0D2
:1013C0008AE10E947E0260E085E00E947E0260E089
:1013D00086E00E947E0210921E0310921D0360E0C0
:1013E00086E10E947E0260E08BE10E947E0266E25E
:1013F00072E0CE0101960E94AF06CE0101960E94D6
:101400001407CE0101960E940C070E943104CECF32
:1014100060E089E10E947E0260E08AE10E947E0233
:1014200082E00E9455027C018091000290910102AD
:10143000E816F90651F00E9419036093190370939E
:101440001A0380931B0390931C030E9419030091BD
:10145000190310911A0320911B0330911C03601B88
:10146000710B820B930B633371058105910508F4B1
:10147000E6C1E114F10409F0E2C110911E0311115B
:10148000BDC183E00E945502019709F09AC161E055
:1014900086E10E947E0261E08BE10E947E0267E4A9
:1014A00072E0CE0101960E94AF06CE0101960E9425
:1014B0001407CE0101960E940C0711E0F092010280
:1014C000E092000200911E03002331F183E00E94AC
:1014D0005502019709F561E085E00E94AC0260E0E9
:1014E00085E00E947E0210921E0361E086E10E9468
:1014F0007E0261E08BE10E947E0267E472E0CE0131
:1015000001960E94AF06CE0101960E941407CE01FB
:1015100001960E940C07102F86E30E94DD02BC0199
:10152000990F880B990B0E948B0F20E030E040EA66
:1015300050E40E94EA0F20E030EC4FE754E40E94B0
:10154000A81020E030E048EC52E40E94EA0F6B0162
:101550007C0120E030E048EC51E40E941A1118169A
:101560000CF06FC180911D0381114FC261E086E0D4
:101570000E94AC0261E086E00E947E0261E08EE1A2
:101580000E947E0260E08FE10E947E0230921D0385
:10159000B701A601CE0182960E94620665E872E05C
:1015A000CE0101960E94AF06BE016E5D7F4FCE0157
:1015B00001960E9424067C014EE050E060E972E052
:1015C000C7010E94E605811103C0C7010E941206EF
:1015D00019A618A61BA61AA61DA61CA6B701CE0101
:1015E00088960E949806CE0188960E941407CE0124
:1015F00088960E940C07CE0101960E940C07CE012E
:1016000082960E940C0711E087E30E94DD026C01C4
:1016100001E08A3F91050CF000E081EA92E00E942F
:10162000B10526010D2C000C6608770877FE3CC139
:101630006DE288E293E00E94C40322273327A901C8
:10164000241935094609570919A2CE0181967C0152
:10165000CA01B901A50194010E941F11605DF70143
:1016600062937F01211531054105510589F7E11488
:10167000F10419F0C7010E94B1058EEA92E00E94C0
:10168000B105809118030817D1F0FAEFCF16D104F5
:101690000CF020C161E087E10E947E0261EB72E004
:1016A000CE0101960E94AF06CE0101960E9414075A
:1016B000CE0101960E940C070093180311E088E305
:1016C0000E94DD02BC01990F880B990B0E948B0FC1
:1016D00020E030EC4FE754E40E94A81020E030E016
:1016E00048EC52E40E94EA0F6B017C0120E030E0FC
:1016F00040E251E40E94840F18160CF4F2C020E07E
:1017000030E040EA50E4C701B6010E941A111816F1
:101710000CF0E7C061E088E10E947E02B701A601FB
:10172000CE0182960E9462066CEC72E0CE010196B8
:101730000E94AF06BE016E5D7F4FCE0101960E94F2
:10174000240619A618A61BA61AA61DA61CA6BC012F
:10175000CE0188960E949806CE0188960E941407B2
:10176000CE0188960E940C07CE0101960E940C07BC
:10177000CE0182960E940C070E94F4022B013C01CC
:1017800082E3C82ED12CE12CF12C0E94F4026419C2
:10179000750986099709683E734081059105A8F38C
:1017A00081E0C81AD108E108F10898EE490E93E0EB
:1017B000591E611C711CC114D104E104F10429F704
:1017C00024CE60E086E10E947E0260E08BE10E9410
:1017D0007E0261E085E00E94AC0261E085E00E944B
:1017E0007E0261E08CE10E947E0260E08DE10E9459
:1017F0007E0230921E0364E672E053CE61E085E023
:101800000E94AC0260E085E00E947E0260E08CE114
:101810000E947E0260E08DE10E947E0210921E0313
:1018200064E772E0CE0101960E94AF06CE010196F8
:101830000E941407CE0101960E940C073FCE10E0D3
:101840003DCE20E030E048EC51E4C701B6010E94F3
:10185000840F18160CF4D8CE80911D03882309F448
:10186000D3CE61E086E00E94AC0260E086E00E9498
:101870007E0210921D03B701A601CE0182960E943E
:10188000620665E872E0CE0101960E94AF06BE01D5
:101890006E5D7F4FCE0101960E9424067C0141E0DF
:1018A00050E06FE972E08CCEA301920119A2CE0143
:1018B00081967C01CA01B901A50194010E941F1102
:1018C000605DF70162937F012115310541055105E6
:1018D00089F7CDCE60E087E10E947E026DEB72E079
:1018E000DFCE20E030E040EA50E4C701B6010E94BC
:1018F000840F1816FCF020E030E0A901C701B60102
:101900000E941A111816B4F40E94190324EF31E052
:1019100040E050E00E941F11622F617088E10E9438
:101920007E02B701A601CE0182960E94620663EE96
:1019300072E0FCCE20E030E0A901C701B6010E94B0
:10194000840F60E0181684F188E10E947E0261E055
:1019500085E00E94AC0260E085E00E947E0261E0CA
:1019600086E00E94AC0260E086E00E947E02109257
:101970001E0310921D0360E086E10E947E0260E07B
:1019800087E10E947E0260E08BE10E947E026CEFA4
:1019900072E0CE0101960E94AF06CE0101960E9430
:1019A0001407CE010196E6CE88E10E947E02111155
:1019B000E3CE0E94190300911403109115032091A6
:1019C000160330911703601B710B820B930B693B5D
:1019D0007B408105910508F4CFCE8091C903909199
:1019E000CA03892B09F4C8CEE091C503F091C60360
:1019F0008081882309F4C0CE0E94020560EB72E06A
:101A000085EC93E00E945806B7CE20E030E048EC29
:101A100051E4C701B6010E94840F18160CF4F4CDEE
:101A200020CF85EC93E00C940C07EF920F931F935B
:101A3000CF93DF93E80134E047FD34E1042E000C3E
:101A4000550B57FF03C0519541955109E32E022FC5
:101A5000242FAE010E94330DCE01DF91CF911F9153
:101A60000F91EF9008958F929F92AF92BF92CF9275
:101A7000DF92EF92FF920F931F93CF93DF9300D0EB
:101A800000D000D0CDB7DEB76A01F22EB02E102FF5
:101A9000FBE3AF2EA01608F41BE31F5F012F27E026
:101AA000AE014F5F5F4F0E94AC0EBC018981982F41
:101AB0009970913009F44EC09BE2E1FC04C09E2D68
:101AC0009170E0FC49C05E2D5071E82FE87083FFF3
:101AD00055C084E0911101C083E0EF2DE81B8F1504
:101AE00008F0E0E0D6018E2F20E25523C9F19923BA
:101AF00029F0D6019C93C60101966C0196012D5FD9
:101B00003F4FE2FE33C08EE4D6018C9391E41196F0
:101B10009C93119712968C93D9018E2F90E281118C
:101B20002AC0E20FF32FF11D10828EEF9FEF29964E
:101B30000FB6F894DEBF0FBECDBFDF91CF911F91DE
:101B40000F91FF90EF90DF90CF90BF90AF909F905C
:101B50008F9008959DE2B7CF90E2B5CF2D9381503D
:101B60008111FCCFCE0ED11CE0E0C1CF8EE6D601B4
:101B70008C9391E6CCCF9D938150D1CF482F447068
:101B800082FF3DC084E0911101C083E08F1510F405
:101B9000EF2DE81BD6018E2F20E2552309F1992362
:101BA00029F0D6019C93C60101966C0196012D5F28
:101BB0003F4FE2FE1BC089E4D6018C938EE4119660
:101BC0008C93119786E412968C93D9018E2F90E214
:101BD000882309F4A6CF9D938150FACF2D9381508D
:101BE0008111FCCFCE0ED11CE0E0D9CF89E6D60121
:101BF0008C938EE611968C93119786E6E4CF9B0129
:101C000077FF02C030E020E0A1E0B0E0911102C017
:101C1000B0E0A0E0F9013196AE0FBF1F8B2C912CE4
:101C2000BB2009F461C05401EFEFAE1ABE0AAA0D41
:101C3000BB1DFA161B0619F014F04F2D4A1B51114B
:101C400088C0E3FC59C07601A42FB0E2A1114FC0B7
:101C5000C40ED11C992309F45BC040E0D601119653
:101C6000F60190836D01552309F448C0012F060F3A
:101C70009A81582F507184FF03C0913309F40150A9
:101C800010160CF047C0093008F008E0EEE2FE2E16
:101C90005B01A01AB10885019194819491082F3FAE
:101CA000320729F4D601FC92F60131966F016217D2
:101CB000730794F1021713077CF5DB01A21BB30B2A
:101CC000AA24A394B12CAC0EBD1EAA0DBB1D119667
:101CD0008C9121503109D601119628153905F4F05F
:101CE000F60180836D01DBCFB12CA12CA0CFF701D1
:101CF000B1937F01A150AACF9111B0CFD601942FFB
:101D000050E302C05D9391509111FCCFC40ED11CE1
:101D100040E0ACCF01E0BACF80E3DBCF62177307BE
:101D200031F4963388F4953311F4552369F0F601B4
:101D30008083FD01842F90E2811108C0A40FB11DA2
:101D40001C9290E080E0F3CE81E3F1CF919381503B
:101D5000F3CF911183CF8ACF283008F027E03327C3
:101D6000DA01990F311D87FD9160009661057105BB
:101D700039F432602E5F3D9330E32A95E1F7089500
:101D80009F3F30F080387105610509F03C5F3C5F92
:101D90003D93913008F08068911DDF93CF931F939E
:101DA0000F93FF92EF92192F987F9695E92F9695B2
:101DB0009695E90FFF27EE54FE4F99273327EE241F
:101DC000FF24A701E70105900894079428F4360F33
:101DD000E71EF81E491F511D660F771F881F991FA8
:101DE0000694A1F70590079428F4E70EF81E491F02
:101DF000561FC11D770F881F991F661F0694A1F7F4
:101E00000590079428F4F80E491F561FC71FD11DCF
:101E1000880F991F661F771F0694A1F705900794F6
:101E200020F4490F561FC71FD81F990F661F771F31
:101E3000881F0694A9F784911095177041F0D695E4
:101E4000C79557954795F794E7941A95C1F7E8E534
:101E5000F1E06894159015913591659195910590F3
:101E60007FE27395E118F10A430B560BC90BD009B9
:101E7000C0F7E10CF11E431F561FC91FD01D7EF491
:101E8000703311F48A95E6CFE894015030F0080FD2
:101E90000AF40027021708F4202F2395022F7A3323
:101EA00028F079E37D932A95E9F710C07D932A9570
:101EB00089F6069497956795379517951794E118C5
:101EC000F10A430B560BC90BD00998F023957E916C
:101ED00073957A3308F070E37C932013B8F77E9102
:101EE00070617D9330F0839571E37D9370E32A9563
:101EF000E1F71124EF90FF900F911F91CF91DF91A7
:101F0000992787FD909508950E94C60F08F481E0F7
:101F10000895E89409C097FB3EF4909580957095DC
:101F200061957F4F8F4F9F4F9923A9F0F92F96E925
:101F3000BB279395F695879577956795B795F1119A
:101F4000F8CFFAF4BB0F11F460FF1BC06F5F7F4F37
:101F50008F4F9F4F16C0882311F096E911C0772349
:101F600021F09EE8872F762F05C0662371F096E852
:101F7000862F70E060E02AF09A95660F771F881F21
:101F8000DAF7880F9695879597F90895990F0008C5
:101F9000550FAA0BE0E8FEEF16161706E807F9073B
:101FA000C0F012161306E407F50798F0621B730BD6
:101FB000840B950B39F40A2661F0232B242B252B57
:101FC00021F408950A2609F4A140A6958FEF811DFA
:101FD000811D08950E94FD0F0C946E100E946010E8
:101FE00038F00E94671020F0952311F00C945710E0
:101FF0000C945D1011240C94A2100E947F1070F3B9
:10200000959FC1F3950F50E0551F629FF001729F9D
:10201000BB27F00DB11D639FAA27F00DB11DAA1FAC
:10202000649F6627B00DA11D661F829F2227B00DF9
:10203000A11D621F739FB00DA11D621F839FA00D84
:10204000611D221F749F3327A00D611D231F849FD4
:10205000600D211D822F762F6A2F11249F5750402B
:102060009AF0F1F088234AF0EE0FFF1FBB1F661FA6
:10207000771F881F91505040A9F79E3F510580F06F
:102080000C9457100C94A2105F3FE4F3983ED4F3E5
:10209000869577956795B795F795E7959F5FC1F713
:1020A000FE2B880F911D9695879597F9089597F9BE
:1020B0009F6780E870E060E008959FEF80EC0895EE
:1020C00000240A9416161706180609060895002417
:1020D0000A9412161306140605060895092E039491
:1020E000000C11F4882352F0BB0F40F4BF2B11F405
:1020F00060FF04C06F5F7F4F8F4F9F4F089557FD64
:102100009058440F551F59F05F3F71F04795880F65
:1021100097FB991F61F09F3F79F0879508951216FC
:1021200013061406551FF2CF4695F1DF08C01616A8
:1021300017061806991FF1CF869571056105089459
:102140000895E894BB2766277727CB0197F9089570
:102150000E94BC100C946E100E94671058F00E94F0
:10216000601040F029F45F3F29F00C945710511192
:102170000C94A2100C945D100E947F1068F39923B8
:10218000B1F3552391F3951B550BBB27AA27621773
:102190007307840738F09F5F5F4F220F331F441F80
:1021A000AA1FA9F335D00E2E3AF0E0E832D09150B4
:1021B0005040E695001CCAF72BD0FE2F29D0660FA1
:1021C000771F881FBB1F261737074807AB07B0E8E4
:1021D00009F0BB0B802DBF01FF2793585F4F3AF0EA
:1021E0009E3F510578F00C9457100C94A2105F3F5D
:1021F000E4F3983ED4F3869577956795B795F79570
:102200009F5FC9F7880F911D9695879597F9089557
:10221000E1E0660F771F881FBB1F621773078407F3
:10222000BA0720F0621B730B840BBA0BEE1F88F702
:10223000E09508950E94C60F08F48FEF0895A1E27B
:102240001A2EAA1BBB1BFD010DC0AA1FBB1FEE1F30
:10225000FF1FA217B307E407F50720F0A21BB30B7B
:10226000E40BF50B661F771F881F991F1A9469F7F7
:1022700060957095809590959B01AC01BD01CF0153
:102280000895EE0FFF1F881F8BBF0790F691E02D7A
:1022900019940F931F93CF93DF938230910510F41D
:1022A00082E090E0E091E503F091E60330E020E089
:1022B000B0E0A0E0309799F42115310509F44AC047
:1022C000281B390B24303105D8F58A819B81611593
:1022D000710589F1FB0193838283FE0111C0408166
:1022E00051810281138148175907E0F048175907B7
:1022F00099F4109761F012960C93129713961C9311
:102300003296CF01DF91CF911F910F9108950093E5
:10231000E5031093E603F4CF2115310551F0421780
:10232000530738F0A901DB019A01BD01DF01F80173
:10233000C1CFEF01F9CF9093E6038093E503CDCFB2
:10234000FE01E20FF31F81939193225031093983EB
:102350002883D7CF2091E3033091E403232B41F46A
:1023600020910402309105023093E4032093E303AB
:1023700020910202309103022115310541F42DB75D
:102380003EB74091060250910702241B350BE091A5
:10239000E303F091E403E217F307A0F42E1B3F0BD5
:1023A0002817390778F0AC014E5F5F4F24173507C7
:1023B00048F04E0F5F1F5093E4034093E303819373
:1023C00091939FCFF0E0E0E09CCFCF93DF93009715
:1023D000E9F0FC01329713821282A091E503B091DB
:1023E000E603ED0130E020E01097A1F42081318177
:1023F000820F931F2091E3033091E40328173907DC
:1024000009F061C0F093E403E093E303DF91CF911F
:102410000895EA01CE17DF07E8F54A815B819E0146
:1024200041155105B1F7E901FB83EA8349915991BF
:10243000C40FD51FEC17FD0761F4808191810296CE
:10244000840F951FE90199838883828193819B83FF
:102450008A83F0E0E0E012968D919C9113970097AB
:10246000B9F52D913C911197CD010296820F931FE2
:102470002091E3033091E4032817390739F63097A8
:1024800051F51092E6031092E503B093E403A09394
:10249000E303BCCFD383C28340815181840F951F56
:1024A000C817D90761F44E5F5F4F88819981480F43
:1024B000591F518340838A819B8193838283211595
:1024C000310509F0B0CFF093E603E093E5039ECF2A
:1024D000FD01DC01C0CF13821282D7CF4F925F92F1
:1024E0006F927F928F929F92AF92BF92CF92DF9224
:1024F000EF92FF920F931F93CF93DF938C0100977E
:1025000099F4CB01DF91CF911F910F91FF90EF9044
:10251000DF90CF90BF90AF909F908F907F906F9003
:102520005F904F900C944911FC01E60FF71F9C013E
:1025300022503109E217F30708F4AEC0D901CD915A
:10254000DC911197C617D70720F1C530D10578F077
:10255000CE0104978617970750F0C61BD70B22971A
:10256000C193D1936D937C93CF010E94E511C80173
:10257000DF91CF911F910F91FF90EF90DF90CF905F
:10258000BF90AF909F908F907F906F905F904F9093
:1025900008955B01AC1ABD0A4C018C0E9D1EA091E2
:1025A000E503B091E603512C412CF12CE12C10975E
:1025B00031F58091E3039091E4038815990509F0C2
:1025C0005CC04616570608F058C0809102029091F0
:1025D0000302009741F48DB79EB7409106025091D7
:1025E0000702841B950BE817F90708F055C0F09314
:1025F000E403E093E303F90171836083B8CF8D9125
:102600009C91119712966C90129713967C90139749
:10261000A815B90559F56C0142E0C40ED11CCA14C5
:10262000DB0420F1AC014A195B09DA011296159717
:1026300080F06282738251834083D9016D937C93D1
:10264000E114F10471F0D7011396FC93EE93129705
:102650008ECF22968C0F9D1FF90191838083F30109
:10266000EFCFF093E603E093E50381CF48165906D8
:1026700008F42C017D01D3019ACFCB010E944911AE
:102680007C01009749F0AE01B8010E944F13C801C8
:102690000E94E51187016BCF10E000E068CFFB01DD
:1026A000DC0102C001900D9241505040D8F70895CE
:1026B000FC018191861721F08823D9F79927089585
:1026C0003197CF010895FB01DC018D9101908019B4
:1026D0000110D9F3990B0895FB01DC0101900D92D3
:1026E0000020E1F7089511E0CAEBD1E000E006C058
:1026F000802FFE010E9441112196011DCB3BD10785
:1027000080E00807A9F7F894FFCF01000000E70375
:10271000800000000000C40325035B0311048C0348
:102720006A037E0300000000AB0525036304620416
:1027300055796172693A204B617069204163696B18
:102740007C4D6F746F722043616C69736D617A2187
:1027500000456D6E69796574204B656D6572697CA5
:1027600054616B696C6920446567696C21004D6F29
:10277000746F722043616C697369796F72004D6F79
:10278000746F7220447572647572756C6475005351
:102790006963616B6C696B3A2000437C4B6C696DBB
:1027A00061204163696C64690043004C44522044D9
:1027B00065676572693A20000D0A004661726C61B6
:1027C00072204163696B004661726C6172204B61DB
:1027D00070616E64690055796172693A2059616B64
:1027E00069747C447573756B202D2025004B7269CC
:1027F00074696B3A2059616B69747C436F6B20413B
:102800007A202D20250059616B6974204269747407
:0E281000697C4D6F746F7220447572647500A0
:020000040003F7
:10E000000D9489F10D94B2F10D94B2F10D94B2F129
:10E010000D94B2F10D94B2F10D94B2F10D94B2F1F0
:10E020000D94B2F10D94B2F10D94B2F10D94B2F1E0
:10E030000D94B2F10D94B2F10D94B2F10D94B2F1D0
:10E040000D94B2F10D94B2F10D94B2F10D94B2F1C0
:10E050000D94B2F10D94B2F10D94B2F10D94B2F1B0
:10E060000D94B2F10D94B2F10D94B2F10D94B2F1A0
:10E070000D94B2F10D94B2F10D94B2F10D94B2F190
:10E080000D94B2F10D94B2F10D94B2F10D94B2F180
:10E090000D94B2F10D94B2F10D94B2F10D94B2F170
:10E0A0000D94B2F10D94B2F10D94B2F10D94B2F160
:10E0B0000D94B2F10D94B2F10D94B2F10D94B2F150
:10E0C0000D94B2F10D94B2F10D94B2F10D94B2F140
:10E0D0000D94B2F10D94B2F10D94B2F10D94B2F130
:10E0E0000D94B2F141546D656761323536300041AF
:10E0F000726475696E6F206578706C6F72657220DE
:10E1000073746B3530305632206279204D4C530099
:10E11000426F6F746C6F616465723E004875683F52
:10E1200000436F6D70696C6564206F6E203D200048
:10E130004350552054797065202020203D20005FF9
:10E140005F4156525F415243485F5F3D2000415658
:10E1500052204C696243205665723D20004743437C
:10E160002056657273696F6E203D20004350552024
:10E1700049442020202020203D20004C6F7720663D
:10E18000757365202020203D20004869676820665F
:10E190007573652020203D200045787420667573D6
:10E1A00065202020203D20004C6F636B2066757336
:10E1B000652020203D20004D617220203720323024
:10E1C000313300312E362E3800342E332E350056A2
:10E1D00023202020414444522020206F7020636F70
:10E1E00064652020202020696E73747275637469E1
:10E1F0006F6E2061646472202020496E74657272B3
:10E20000757074006E6F20766563746F7200726A49
:10E210006D702020006A6D70200057686174207056
:10E220006F72743A00506F7274206E6F7420737541
:10E2300070706F72746564004D7573742062652030
:10E2400061206C6574746572002000577269747483
:10E25000696E672045450052656164696E672045B7
:10E26000450045452065727220636E743D00504F35
:10E27000525400303D5A65726F2061646472003FF1
:10E280003D43505520737461747300403D454550C3
:10E29000524F4D207465737400423D426C696E6B41
:10E2A000204C454400453D44756D70204545505215
:10E2B0004F4D00463D44756D7020464C415348001B
:10E2C000483D48656C70004C3D4C69737420492F83
:10E2D0004F20506F72747300513D51756974005234
:10E2E0003D44756D702052414D00563D73686F7707
:10E2F00020696E7465727275707420566563746FF0
:10E30000727300593D506F727420626C696E6B00BD
:10E310002A0011241FBECFEFD1E2DEBFCDBF01E046
:10E320000CBF12E0A0E0B2E0EEE1FDEF03E00BBFB6
:10E3300002C007900D92A030B107D9F712E0A0E01B
:10E34000B2E001C01D92AE30B107E1F70F9460F367
:10E350000D948DFE01E20EBF0FEF0DBF11241FBE05
:10E360000D9460F30D9400F020E030E040ED57E0B4
:10E3700005C0FA013197F1F72F5F3F4F2817390792
:10E38000C0F308959C01260F311DC901A0E0B0E043
:10E390002F5F3F4FABBFFC018791882361F08093D3
:10E3A000C6008091C00086FFFCCF8091C0008064D1
:10E3B0008093C000EACF08958DE08093C6008091DD
:10E3C000C00086FFFCCF8091C00080648093C000B5
:10E3D0008AE08093C6008091C00086FFFCCF8091C8
:10E3E000C00080648093C00008950F94C2F10F9420
:10E3F000DCF10895FC019081992359F09093C600B7
:10E400008091C00086FFFCCF8091C0008064809323
:10E41000C0003196992379F70895282F982F929567
:10E420009F70892F805D8A3308F0895F8093C600D2
:10E430008091C00086FFFCCF8091C00080648093F3
:10E44000C000822F8F70982F905D9A3308F0995FEB
:10E450009093C6008091C00086FFFCCF8091C000E1
:10E4600080648093C00008959C01FB01853691056E
:10E470001CF46330710594F0C90164E670E00F94F8
:10E480002EFE605D7F4F6093C6008091C00086FFC6
:10E49000FCCF8091C00080648093C0002B30310598
:10E4A00014F43297B4F0C90164E670E00F942EFEC4
:10E4B0006AE070E00F942EFE605D7F4F6093C600AF
:10E4C0008091C00086FFFCCF8091C0008064809363
:10E4D000C000C9016AE070E00F942EFEC0968093E0
:10E4E000C6008091C00086FFFCCF8091C000806490
:10E4F0008093C00008951F93182F8EE692EE60E07F
:10E500000F94C2F11093C6008091C00086FFFCCF2B
:10E510008091C00080648093C0000F94DCF11F9153
:10E5200008952F923F924F925F926F927F928F92B7
:10E530009F92AF92BF92CF92DF92EF92FF920F9392
:10E540001F93DF93CF93CDB7DEB762970FB6F894E2
:10E55000DEBF0FBECDBF382E622ECA01DB015C01CB
:10E560006D01772420E2222E2E010894411C511CBB
:10E570008BC081E0A81680E0B80681E0C80680E084
:10E58000D80628F0C601AA27BB270F940DF2BB2797
:10E59000AD2D9C2D8B2D0F940DF28A2D0F940DF225
:10E5A0002092C6008091C00086FFFCCF8091C00001
:10E5B00080648093C0009DE29093C6008091C0006B
:10E5C00086FFFCCF8091C00080648093C0002092C1
:10E5D000C6008091C00086FFFCCF8091C00080649F
:10E5E0008093C00019828601750188249924A1E0D6
:10E5F0003A1651F03A1620F0B2E03B1661F409C029
:10E600000BBFF701779007C0C7010F9477FE782EF4
:10E6100002C0F7017080872D0F940DF22092C60082
:10E620008091C00086FFFCCF8091C0008064809301
:10E63000C000872D8052F401EF70F0708F3520F408
:10E64000E40DF51D708204C0E40DF51D8EE280839B
:10E650000894E11CF11C011D111D0894811C911CE2
:10E6600090E18916910409F0C2CF80E190E0A0E02A
:10E67000B0E0A80EB91ECA1EDB1E198AC2010F9493
:10E68000FAF10F94DCF16A94662009F072CF629679
:10E690000FB6F894DEBF0FBECDBFCF91DF911F91B3
:10E6A0000F91FF90EF90DF90CF90BF90AF909F9031
:10E6B0008F907F906F905F904F903F902F90089534
:10E6C0002F923F924F925F926F927F928F929F9282
:10E6D000AF92BF92CF92DF92EF92FF920F931F9370
:10E6E000DF93CF93CDB7DEB7CD53D1400FB6F894BB
:10E6F000DEBF0FBECDBF01E20EBF0FEF0DBF94B75F
:10E70000F894A89514BE80916000886180936000A1
:10E7100010926000789493FF05C0E0910002F091A0
:10E7200001021995279A2F9A8091C00082608093E8
:10E73000C00080E18093C40088E18093C1000000A4
:10E74000EE24FF24870144E0A42EB12CCC24DD2448
:10E7500024C0C5010197F1F70894E11CF11C011DCB
:10E76000111D21E2E2162EE4F20620E0020720E06D
:10E77000120718F031E0C32ED12CC801B70127ECE5
:10E780003BE140E050E00F9441FE611571058105C9
:10E79000910519F485B1805885B98091C00087FD35
:10E7A00003C0C114D104A9F2A6014F5F5F4FC25E3E
:10E7B000DE4F59834883CE51D140C25EDE4F8881FF
:10E7C0009981CE51D140019711F00D9410FEC05D9A
:10E7D000DE4F19821882C053D14060E0C15DDE4F28
:10E7E0001882CF52D14088249924C35DDE4F19820C
:10E7F0001882CD52D140C05EDE4F188219821A8233
:10E800001B82C052D140CE5CDE4F188219821A8220
:10E810001B82C253D140EE24FF2487010BBFF701B6
:10E8200007911691C45CDE4F19830883CC53D14005
:10E830000D940BFEC25EDE4F28813981CE51D1404E
:10E840002130310509F52091C600C25EDE4F1982E4
:10E850001882CE51D14022C02F5F3F4F4F4F5F4FA4
:10E86000213082E138078AE7480780E0580780F0C6
:10E87000C45CDE4FE881F981CC53D140EF5FFF4F9C
:10E8800019F0EE27FF27099420E030E040E050E047
:10E890008091C00087FFE0CF2091C600C35DDE4FAE
:10E8A00048815981CD52D1404F5F5F4FC35DDE4FEC
:10E8B00059834883CD52D140213209F063C64A3092
:10E8C000510508F05FC60894811C911C53E0851621
:10E8D000910409F059C600E010E018C081E280936D
:10E8E000C6008091C00086FFFCCF8091C00080648C
:10E8F0008093C0002F5F3F4F2931310579F70F9486
:10E90000DCF10F5F1F4F0530110519F020E030E0FA
:10E91000E5CF10920A0210920B0210920C02109294
:10E920000D02109206021092070210920802109235
:10E930000902109202021092030210920402109235
:10E9400005028FEE90EE60E00F94F5F180E191EE1C
:10E9500060E00F94C2F18091C00087FFFCCF9091DE
:10E96000C600903608F09F759032B8F09093C600BC
:10E970008091C00086FFFCCF8091C00080648093AE
:10E98000C000A0E2A093C6008091C00086FFFCCF2B
:10E990008091C00080648093C000983409F4D7C18E
:10E9A0009934B8F4923409F459C1933458F490333B
:10E9B00019F1903308F4E3C59F33A1F1903409F0C5
:10E9C000DEC5BDC0953409F470C1963409F0D7C5D1
:10E9D00098C1923509F42BC2933538F49C3409F46C
:10E9E000F5C1913509F0CBC518C2963509F445C279
:10E9F000993509F0C4C567C483E792EE62E00F94CD
:10EA0000F5F110920602109207021092080210927D
:10EA1000090210920A0210920B0210920C0210923C
:10EA20000D0213C18FE792EE62E00F94F5F18FEEC5
:10EA300090EE60E00F94F5F181E291EE60E00F94CA
:10EA4000C2F187EB91EE60E00F94F5F180E391EE77
:10EA500060E00F94C2F184EE90EE60E00F94F5F167
:10EA60008FE391EE60E00F94C2F186E090E061E008
:10EA700070E00F9434F20F94DCF18DE591EE60E0DC
:10EA80000F94C2F189EC91EE60E00F94F5F18EE401
:10EA900091EE60E00F94C2F183EC91EE60E00F9490
:10EAA000F5F18CE691EE60E00F94C2F18EE10F94E7
:10EAB0000DF288E90F940DF281E00F940DF20F949E
:10EAC000DCF18BE791EE60E00F94C2F119E0E0E039
:10EAD000F0E010935700E4918E2F0F940DF20F94F5
:10EAE000DCF18AE891EE60E00F94C2F1E3E0F0E03F
:10EAF00010935700E4918E2F0F940DF20F94DCF1D8
:10EB000089E991EE60E00F94C2F1E2E0F0E0109349
:10EB10005700E4918E2F0F940DF20F94DCF188EAE8
:10EB200091EE60E00F94C2F1E1E0F0E01093570045
:10EB30001491812F0F940DF20F94DCF107CF8BE825
:10EB400092EE62E00F94F5F18BE492EE60E00F94A8
:10EB5000F5F10F94DCF100E010E019C0C8016F2D51
:10EB60000F947FFEFF2031F489E492EE60E00F9471
:10EB7000C2F10BC0F092C6008091C00086FFFCCFAE
:10EB80008091C00080648093C0000F5F1F4FC80158
:10EB900081519F41A0E0B0E0ABBFFC01F790BAE229
:10EBA000FB1621F0E2E000301E07C1F60F94DCF105
:10EBB0000F94DCF187E592EE60E00F94F5F10F948D
:10EBC000DCF1CC24DD2400E010E01EC0C8010F946D
:10EBD00077FEF82E882331F489E492EE60E00F94FA
:10EBE000C2F10BC08093C6008091C00086FFFCCFAD
:10EBF0008091C00080648093C000FE1419F00894D6
:10EC0000C11CD11C0F5F1F4FC80181519F41A0E063
:10EC1000B0E0ABBFFC01E790FAE2EF1621F022E092
:10EC20000030120799F60F94DCF10F94DCF182E6C4
:10EC300092EE60E00F94C2F1C60161E070E00F94C3
:10EC400034F20F94DCF10F94DCF110920202109276
:10EC50000302109204021092050278CE89E992EE26
:10EC600062E00F94F5F1279A2F9A16C02F9880E052
:10EC700090E0E0EDF7E03197F1F7019684369105E9
:10EC8000C1F72F9A80E090E0E0EDF7E03197F1F7DF
:10EC9000019684369105C1F78091C00087FFE6CFC9
:10ECA0008091C00087FFFCCF64C485EA92EE62E0E9
:10ECB0000F94F5F140910202509103026091040219
:10ECC0007091050281E020E10F9491F2809102029F
:10ECD00090910302A0910402B091050280509F4FD1
:10ECE000AF4FBF4F8093020290930302A0930402A0
:10ECF000B093050280509041A040B04008F426CE69
:10ED0000A4CF83EB92EE62E00F94F5F140910602FE
:10ED100050910702609108027091090280E020E1A1
:10ED20000F9491F28091060290910702A09108023F
:10ED3000B091090280509F4FAF4FBF4F80930602A2
:10ED400090930702A0930802B0930902FFCD80ECD4
:10ED500092EE62E00F94F5F183E792EE60E00F949B
:10ED6000F5F18FE792EE60E00F94F5F18BE892EE0B
:10ED700060E00F94F5F189E992EE60E00F94F5F10F
:10ED800085EA92EE60E00F94F5F183EB92EE60E09D
:10ED90000F94F5F180EC92EE60E00F94F5F187ECC2
:10EDA00092EE60E00F94F5F188ED92EE60E00F9442
:10EDB000F5F18FED92EE60E00F94F5F18AEE92EEB0
:10EDC00060E00F94F5F183E093EEBDCD87EC92EE19
:10EDD00062E00F94F5F181E40F947BF282E40F94EA
:10EDE0007BF283E40F947BF284E40F947BF285E45E
:10EDF0000F947BF286E40F947BF287E40F947BF20E
:10EE000088E40F947BF28AE40F947BF28BE40F94F6
:10EE10007BF28CE40F947BF299CD88ED92EE62E068
:10EE20000F94F5F1772473948824992409C48FED05
:10EE300092EE62E00F94F5F140910A0250910B02BC
:10EE400060910C0270910D0282E020E10F9491F22A
:10EE500080910A0290910B02A0910C02B0910D02D8
:10EE600080509F4FAF4FBF4F80930A0290930B0289
:10EE7000A0930C02B0930D0269CD8AEE92EE62E08F
:10EE80000F94F5F184EE90EE60E00F94F5F18FECC5
:10EE900091EE60E00F94F5F1662477244301CC5D98
:10EEA000DE4F19821882C452D140D401C301B695F5
:10EEB000A79597958795CA5DDE4F88839983AA8326
:10EEC000BB83C652D140CC5DDE4FA881B981C4520C
:10EED000D1401196CC5DDE4FB983A883C452D14096
:10EEE000CD0162E070E00F9434F2B0E2B093C6005E
:10EEF0008091C00086FFFCCF8091C0008064809329
:10EF0000C000EDE2E093C6008091C00086FFFCCF18
:10EF10008091C00080648093C000F0E2F093C6004E
:10EF20008091C00086FFFCCF8091C00080648093F8
:10EF3000C000CA5DDE4FE880F9800A811B81C6529D
:10EF4000D140BB27A12F902F8F2D0F940DF2CA5DBA
:10EF5000DE4F8881C652D1400F940DF2B0E2FB2EF5
:10EF6000F092C6008091C00086FFFCCF8091C00067
:10EF700080648093C0000DE30093C6008091C000C0
:10EF800086FFFCCF8091C00080648093C00010E2B7
:10EF90001093C6008091C00086FFFCCF8091C00016
:10EFA00080648093C0008BBEF3012791C65DDE4F65
:10EFB0002883CA52D140A22EBB24CC24DD2408943D
:10EFC000611C711C811C911C8BBEF3018791282E42
:10EFD0003324442455240894611C711C811C911C09
:10EFE0008BBEF3013791C55DDE4F3883CB52D140E4
:10EFF0000894611C711C811C911C8BBEF30147910C
:10F00000C45DDE4F4883CC52D140ADEFEA2EAFEF66
:10F01000FA2EAFEF0A2FAFEF1A2F6E0C7F1C801E57
:10F02000911E142D032DF22CEE24EA0CFB1C0C1D5A
:10F030001D1D0F940DF220E22093C6008091C000A8
:10F0400086FFFCCF8091C00080648093C000C65DC5
:10F05000DE4F8881CA52D1400F940DF230E23093D6
:10F06000C6008091C00086FFFCCF8091C000806404
:10F070008093C000C45DDE4F8881CC52D1400F9494
:10F080000DF240E24093C6008091C00086FFFCCFA5
:10F090008091C00080648093C000C55DDE4F888190
:10F0A000CB52D1400F940DF250E25093C6008091A4
:10F0B000C00086FFFCCF8091C00080648093C000B8
:10F0C0008FEFE8168FEFF80680E0080780E018075A
:10F0D00031F484E092EE60E00F94C2F1DFC0D80119
:10F0E000C7018070907CA070B0708050904CA040A0
:10F0F000B040D1F52FEF3FE340E050E0E222F322B1
:10F1000004231523CA5DDE4FA880B980CA80DB8046
:10F11000C652D140AE0CBF1CC01ED11EAA0CBB1CD7
:10F12000CC1CDD1C8EE092EE60E00F94C2F1BB2798
:10F13000A12F902F8F2D0F940DF28E2D0F940DF285
:10F1400030E23093C6008091C00086FFFCCF8091F2
:10F15000C00080648093C0004EE34093C60080915D
:10F16000C00086FFFCCF87C08EE09EEFA0E0B0E03D
:10F17000E822F9220A231B239CE0E91694E9F90608
:10F1800090E0090790E0190709F088C0C45DDE4FE0
:10F19000A881CC52D140EA2EFF2400E010E0102FCD
:10F1A0000F2DFE2CEE24C55DDE4FB881CB52D14031
:10F1B000EB0EF11C011D111DD601C501817090706F
:10F1C000A070B070DC0199278827E80EF91E0A1F8D
:10F1D0001B1F20EF30E040E050E0A222B322C42207
:10F1E000D52241E1AA0CBB1CCC1CDD1C4A95D1F7F1
:10F1F000EA0CFB1C0C1D1D1D81E090E0A0E0B0E0BE
:10F20000282239224A225B2235E1220C331C441C7D
:10F21000551C3A95D1F7E20CF31C041D151D57013E
:10F220006801AA0CBB1CCC1CDD1C85E192EE60E0E1
:10F230000F94C2F1C801AA27BB270F940DF2BB2778
:10F24000A12F902F8F2D0F940DF28E2D0F940DF274
:10F2500090E29093C6008091C00086FFFCCF809121
:10F26000C00080648093C000AEE3A093C60080918C
:10F27000C00086FFFCCF8091C00080648093C000F6
:10F28000C601AA27BB270F940DF2BB27AD2D9C2DDD
:10F290008B2D0F940DF28A2D0F940DF20F94DCF14B
:10F2A000CC5DDE4FE881F981C452D140F99709F471
:10F2B0004DCBF4E0EF2EF12C012D112D6E0C7F1CA7
:10F2C000801E911EF2CD83E093EE62E00F94F5F183
:10F2D0008AE192EE60E00F94C2F18091C00087FF56
:10F2E000FCCF1091C6001F751093C6008091C0001E
:10F2F00086FFFCCF8091C00080648093C0000F9493
:10F30000DCF1812F81548A3108F036C1163409F4BA
:10F3100095C0173490F4133409F44EC0143430F40B
:10F320001134F1F0123409F01DC130C0143409F465
:10F3300059C0153409F016C16BC01A3409F4C4C0A1
:10F340001B3438F4173409F48FC0183409F00AC19B
:10F35000A1C01B3409F4D2C01C3409F003C1E8C0B9
:10F360008FEF81B90DC082B1809582B980E090E0C5
:10F37000E0EDF7E03197F1F70196883C9105C1F790
:10F380008091C00087FFEFCF12B8EFC08FEF84B934
:10F390000DC085B1809585B980E090E0E0EDF7E0A3
:10F3A0003197F1F70196883C9105C1F78091C00033
:10F3B00087FFEFCF15B8D9C08FEF87B90DC088B1DF
:10F3C000809588B980E090E0E0EDF7E03197F1F7C3
:10F3D0000196883C9105C1F78091C00087FFEFCF6F
:10F3E00018B8C3C08FEF8AB90DC08BB180958BB9A7
:10F3F00080E090E0E0EDF7E03197F1F70196883C8E
:10F400009105C1F78091C00087FFEFCF1BB8ADC059
:10F410008FEF8DB90DC08EB180958EB980E090E0F0
:10F42000E0EDF7E03197F1F70196883C9105C1F7DF
:10F430008091C00087FFEFCF1EB897C08FEF80BBD1
:10F440000DC081B3809581BB80E090E0E0EDF7E0F6
:10F450003197F1F70196883C9105C1F78091C00082
:10F4600087FFEFCF11BA81C08FEF83BB0DC084B38C
:10F47000809584BB80E090E0E0EDF7E03197F1F714
:10F480000196883C9105C1F78091C00087FFEFCFBE
:10F4900014BA6BC08FEF809301010FC080910201FD
:10F4A00080958093020180E090E0E0EDF7E03197F5
:10F4B000F1F70196883C9105C1F78091C00087FF64
:10F4C000EDCF1092020151C08FEF809304010FC065
:10F4D0008091050180958093050180E090E0E0ED4A
:10F4E000F7E03197F1F70196883C9105C1F78091DB
:10F4F000C00087FFEDCF1092050137C08FEF8093DA
:10F5000007010FC08091080180958093080180E079
:10F5100090E0E0EDF7E03197F1F70196883C910536
:10F52000C1F78091C00087FFEDCF109208011DC088
:10F530008FEF80930A010FC080910B01809580931B
:10F540000B0180E090E0E0EDF7E03197F1F70196F4
:10F55000883C9105C1F78091C00087FFEDCF1092E4
:10F560000B0103C085E292EEEEC98091C00087FFD7
:10F57000FCCF8091C600EAC988E392EEE4C98CE131
:10F5800091EEE1C988249924933011F1943028F444
:10F59000913089F09230B8F408C0953061F195301F
:10F5A000F0F0963009F048C043C02B3109F042C951
:10F5B00091E06BE13FC96227C15DDE4F2883CF52E6
:10F5C000D14092E037C9B22FA0E0622793E032C960
:10F5D000822F90E0A82BB92B622794E02BC92E3004
:10F5E00009F039C3622795E0C05DDE4F19821882A9
:10F5F000C053D1401FC9E1E0F0E0EC0FFD1FC05D3A
:10F60000DE4F08811981C053D140E00FF11F2083E4
:10F610000F5F1F4FC05DDE4F19830883C053D14079
:10F6200062270A171B0709F005C9D80196E002C92D
:10F63000261709F010C303C0973009F0FBC87724E0
:10F640009981933109F412C19431C8F4963009F4C8
:10F65000D8C0973050F4923009F406C1933009F4C1
:10F660006DC0913009F059C253C0913109F477C08F
:10F67000923108F0BBC0903109F04FC2F5C098310B
:10F6800009F487C0993150F4953109F4EFC09531F0
:10F6900008F4C6C1963109F040C2C2C19A3109F4DA
:10F6A0006CC09A3108F491C09B3109F45BC09D3164
:10F6B00009F033C29D81903359F48F81882311F46E
:10F6C0009EE11CC0813011F091E018C098E916C08D
:10F6D000892F807591F0903539F4E0E0F0E089E011
:10F6E0008093570094910AC0983539F4E3E0F0E034
:10F6F00089E080935700949101C090E01A821B82A8
:10F700008D818C831D829E831F8227E030E009C299
:10F710001A8288E08B8381E48C8386E58D8382E581
:10F720008E8389E48F8383E5888780E589878FE5E9
:10F730008A8782E38B872BE030E0F3C18A818139AD
:10F7400041F0823941F0803911F48FE005C080E04A
:10F7500003C082E001C08AE01A828B8344C0772410
:10F76000739482C08D81882311F48EE12CC0813086
:10F7700011F081E028C088E926C01A82E1E0F0E0BB
:10F7800089E08093570084918B831C8224E030E0D1
:10F79000C8C18B81803589F48C81883039F4E2E0EE
:10F7A000F0E089E08093570084910DC0E0E0F0E044
:10F7B00089E080935700849106C0E3E0F0E089E09F
:10F7C0008093570084911A82DFCF8D81836C99E0FA
:10F7D000E1E0F0E0082E90935700E89507B600FCB2
:10F7E000FDCF1A821B8223E030E09BC180EC8A832C
:10F7F000CE5CDE4F188219821A821B82C253D1401E
:10F800008EC18A8190E0A0E0B0E0582F44273327D2
:10F8100022278B8190E0A0E0B0E0DC0199278827C7
:10F82000282B392B4A2B5B2B8D8190E0A0E0B0E098
:10F83000282B392B4A2B5B2B8C8190E0A0E0B0E089
:10F84000BA2FA92F982F8827282B392B4A2B5B2BCF
:10F85000220F331F441F551FC05EDE4F288339839C
:10F860004A835B83C052D1401A8259C13A81C95C34
:10F87000DE4F3883C753D140CA5CDE4F1882C6536F
:10F88000D1408B81C82EDD24CA5CDE4F488159816E
:10F89000C653D140C42AD52A933109F082C0CE5C28
:10F8A000DE4F88819981AA81BB81C253D1408050AB
:10F8B000904CA340B04030F583E0CE5CDE4FE88052
:10F8C000F9800A811B81C253D140F70100935B008C
:10F8D00080935700E89507B600FCFDCFCE5CDE4F65
:10F8E000088119812A813B81C253D14000501F4FAA
:10F8F0002F4F3F4FCE5CDE4F088319832A833B8313
:10F90000C253D140C05EDE4F488159816A817B81FC
:10F91000C052D140DE011B9631E08C9111962C91A2
:10F9200011971296C75CDE4F2883C953D140C85C3B
:10F93000DE4F1882C853D14090E0C85CDE4FE881AA
:10F94000F981C853D1408E2B9F2B0C01FA01609393
:10F950005B0030935700E89511244E5F5F4F6F4F67
:10F960007F4F0EEFE02E0FEFF02ECE0CDF1CC114F8
:10F97000D10499F685E0C05EDE4F088119812A81A5
:10F980003B81C052D140F80120935B008093570027
:10F99000E89507B600FCFDCF81E180935700E8951C
:10F9A00035C0C05EDE4F88819981AA81BB81C0527B
:10F9B000D140B695A795979587957C018601ABE0D8
:10F9C000AA2EB12CAC0EBD1E0BC0D5016D915D01F0
:10F9D000C7010F947FFE0894E11CF11C01501040F8
:10F9E0000115110591F7A60160E070E0440F551F65
:10F9F000661F771FC05EDE4FE880F9800A811B8199
:10FA0000C052D1404E0D5F1D601F711F1A82C05E33
:10FA1000DE4F488359836A837B83C052D1407FC0C5
:10FA2000FA80C55CDE4FF882CB53D140C65CDE4F16
:10FA30001882CA53D1408B81C82EDD24C65CDE4FAC
:10FA400008811981CA53D140C02AD12A1A828981DA
:10FA5000BE016D5F7F4F843121F59601C05EDE4FA0
:10FA6000E880F9800A811B81C052D1400BBFF701A9
:10FA700087919691DB018C9311969C936E5F7F4FDB
:10FA8000D801C7010296A11DB11DC05EDE4F88835B
:10FA90009983AA83BB83C052D14022503040F1F6F3
:10FAA00036C0C05EDE4F288139814A815B81C052F9
:10FAB000D1400894C108D108760100E010E0089414
:10FAC000C11CD11C0894E11CF11C011D111DE20E8A
:10FAD000F31E041F151F21BDBB27A52F942F832FB5
:10FAE00082BD2F5F3F4F4F4F5F4FF89A80B5DB01CC
:10FAF0008D93BD012E153F054007510761F7C05E8C
:10FB0000DE4F288339834A835B83C052D1409601FC
:10FB10002D5F3F4FFB01108204C080EC8A8322E0FE
:10FB200030E08BE18093C6008091C00086FFFCCF5F
:10FB30008091C00080648093C000C15DDE4FF88179
:10FB4000CF52D140F093C6008091C00086FFFCCF19
:10FB50008091C00080648093C000432F3093C60022
:10FB60008091C00086FFFCCF8091C00080648093AC
:10FB7000C000922F2093C6008091C00086FFFCCF6A
:10FB80008091C00080648093C0008EE08093C600A6
:10FB90008091C00086FFFCCF8091C000806480937C
:10FBA000C00065E1C15DDE4FE880CF52D1406E25D7
:10FBB00069276427FE01319610C090819093C6009A
:10FBC0008091C00086FFFCCF31968091C000806498
:10FBD0008093C0006927215030402115310569F715
:10FBE0006093C6008091C00086FFFCCF8091C0006A
:10FBF00080648093C00085B1805885B9772081F4F6
:10FC0000C15DDE4F0881CF52D1400F5FC15DDE4F35
:10FC10000883CF52D14090E0A0E0B0E00D941AF4F8
:10FC200027982F9880E090E020ED37E0F901319798
:10FC3000F1F7019684369105C9F700008091C00064
:10FC40008D7F8093C00081E180935700E895EE2777
:10FC5000FF270994FFCF90E00D941AF497FB092E2B
:10FC600007260AD077FD04D02ED006D000201AF443
:10FC7000709561957F4F0895F6F7909581959F4F08
:10FC80000895A1E21A2EAA1BBB1BFD010DC0AA1FDD
:10FC9000BB1FEE1FFF1FA217B307E407F50720F0F5
:10FCA000A21BB30BE40BF50B661F771F881F991F70
:10FCB0001A9469F760957095809590959B01AC01B9
:10FCC000BD01CF010895AA1BBB1B51E107C0AA1FAC
:10FCD000BB1FA617B70710F0A61BB70B881F991FED
:10FCE0005A95A9F780959095BC01CD010895F99991
:10FCF000FECF92BD81BDF89A992780B50895262F31
:10FD0000F999FECF1FBA92BD81BD20BD0FB6F89400
:0EFD1000FA9AF99A0FBE01960895F894FFCF63
:00000001FF
